:020000040000fa
:080000000002040000000000f2
:020000040000fa
:04000800920400005e
:020000040000fa
:04000c00920400005a
:020000040000fa
:040010009204000056
:020000040000fa
:040014009204000052
:020000040000fa
:04001800920400004e
:020000040000fa
:04001c00920400004a
:020000040000fa
:040020009204000046
:020000040000fa
:040024009204000042
:020000040000fa
:04002800920400003e
:020000040000fa
:04002c00920400003a
:020000040000fa
:040030009204000036
:020000040000fa
:0400340002030000c3
:020000040000fa
:04003800920400002e
:020000040000fa
:04003c00920400002a
:020000040000fa
:040040009204000026
:020000040000fa
:040044009204000022
:020000040000fa
:04004800fa020000b8
:020000040000fa
:04004c00920400001a
:020000040000fa
:040050009204000016
:020000040000fa
:040054004e04000056
:020000040000fa
:04005800240400007c
:020000040000fa
:04005c00000400009c
:020000040000fa
:040060009204000006
:020000040000fa
:040064009204000002
:020000040000fa
:0400680092040000fe
:020000040000fa
:04006c0092040000fa
:020000040000fa
:0400700092040000f6
:020000040000fa
:0400740092040000f2
:020000040000fa
:0400780092040000ee
:020000040000fa
:04007c0092040000ea
:020000040000fa
:0400800092040000e6
:020000040000fa
:0400840092040000e2
:020000040000fa
:0400880092040000de
:020000040000fa
:04008c0092040000da
:020000040000fa
:0400900092040000d6
:020000040000fa
:04009400d60300008f
:020000040000fa
:0400980092040000ce
:020000040000fa
:04009c0092040000ca
:020000040000fa
:0400a00092040000c6
:020000040000fa
:0400a40092040000c2
:020000040000fa
:0400a80092040000be
:020000040000fa
:0400ac0092040000ba
:020000040000fa
:0400b00092040000b6
:020000040000fa
:0400b40092040000b2
:020000040000fa
:0400b80092040000ae
:020000040000fa
:0400bc0092040000aa
:020000040000fa
:0400c00092040000a6
:020000040000fa
:0400c40092040000a2
:020000040000fa
:0400c800920400009e
:020000040000fa
:0400cc00920400009a
:020000040000fa
:0400d0009204000096
:020000040000fa
:0400d4009204000092
:020000040000fa
:0400d800920400008e
:020000040000fa
:0400dc00920400008a
:020000040000fa
:0400e0009204000086
:020000040000fa
:0400e4009204000082
:020000040000fa
:0400e800920400007e
:020000040000fa
:0400ec00920400007a
:020000040000fa
:0400f0009204000076
:020000040000fa
:0400f4009204000072
:020000040000fa
:0400f800920400006e
:020000040000fa
:0400fc00920400006a
:020000040000fa
:040100009204000065
:020000040000fa
:040104009204000061
:020000040000fa
:04010800920400005d
:020000040000fa
:04010c009204000059
:020000040000fa
:040110009204000055
:020000040000fa
:040114009204000051
:020000040000fa
:04011800920400004d
:020000040000fa
:04011c009204000049
:020000040000fa
:040120009204000045
:020000040000fa
:040124009204000041
:020000040000fa
:04012800920400003d
:020000040000fa
:04012c009204000039
:020000040000fa
:040130009204000035
:020000040000fa
:040134009204000031
:020000040000fa
:04013800920400002d
:020000040000fa
:04013c009204000029
:020000040000fa
:040140009204000025
:020000040000fa
:040144009204000021
:020000040000fa
:04014800920400001d
:020000040000fa
:04014c009204000019
:020000040000fa
:040150009204000015
:020000040000fa
:040154009204000011
:020000040000fa
:04015800920400000d
:020000040000fa
:04015c009204000009
:020000040000fa
:040160009204000005
:020000040000fa
:040164009204000001
:020000040000fa
:0401680092040000fd
:020000040000fa
:04016c0092040000f9
:020000040000fa
:0401700092040000f5
:020000040000fa
:0401740092040000f1
:020000040000fa
:0401780092040000ed
:020000040000fa
:04017c0092040000e9
:020000040000fa
:0401800092040000e5
:020000040000fa
:0401840092040000e1
:020000040000fa
:0401880092040000dd
:020000040000fa
:04018c0092040000d9
:020000040000fa
:0401900092040000d5
:020000040000fa
:0401940092040000d1
:020000040000fa
:0401980092040000cd
:020000040000fa
:04019c0092040000c9
:020000040000fa
:0401a00092040000c5
:020000040000fa
:0401a40092040000c1
:020000040000fa
:0401a80092040000bd
:020000040000fa
:0401ac0092040000b9
:020000040000fa
:0401b00092040000b5
:020000040000fa
:0401b40092040000b1
:020000040000fa
:0401b80092040000ad
:020000040000fa
:0401bc0092040000a9
:020000040000fa
:0401c00092040000a5
:020000040000fa
:0401c40092040000a1
:020000040000fa
:0401c800920400009d
:020000040000fa
:0401cc009204000099
:020000040000fa
:0401d0009204000095
:020000040000fa
:0401d4009204000091
:020000040000fa
:0401d800920400008d
:020000040000fa
:0401dc009204000089
:020000040000fa
:0401e0009204000085
:020000040000fa
:0401e4009204000081
:020000040000fa
:0401e800920400007d
:020000040000fa
:0401ec009204000079
:020000040000fa
:0401f0009204000075
:020000040000fa
:0401f4009204000071
:020000040000fa
:0401f800920400006d
:020000040000fa
:0401fc009204000069
:020000040000fa
:040200009204000064
:020000040000fa
:040204009204000060
:020000040000fa
:04020800920400005c
:020000040000fa
:04020c009204000058
:020000040000fa
:040210009204000054
:020000040000fa
:040214009204000050
:020000040000fa
:04021800920400004c
:020000040000fa
:04021c009204000048
:020000040000fa
:040220009204000044
:020000040000fa
:040224009204000040
:020000040000fa
:04022800920400003c
:020000040000fa
:04022c009204000038
:020000040000fa
:040230009204000034
:020000040000fa
:040234009204000030
:020000040000fa
:04023800920400002c
:020000040000fa
:04023c009204000028
:020000040000fa
:040240009204000024
:020000040000fa
:040244009204000020
:020000040000fa
:04024800920400001c
:020000040000fa
:04024c009204000018
:020000040000fa
:040250009204000014
:020000040000fa
:040254009204000010
:020000040000fa
:04025800920400000c
:020000040000fa
:04025c009204000008
:020000040000fa
:040260009204000004
:020000040000fa
:040264009204000000
:020000040000fa
:0402680092040000fc
:020000040000fa
:04026c0092040000f8
:020000040000fa
:0402700092040000f4
:020000040000fa
:0402740092040000f0
:020000040000fa
:0402780092040000ec
:020000040000fa
:04027c0092040000e8
:020000040000fa
:0402800092040000e4
:020000040000fa
:100400000f7921000eff2c000e0188000000000073
:10041000000020000000e000020032000001200087
:100420002002880014000700400107000000e000df
:1004300003003a006004220001002000020037009f
:100440000000200001002000810f70000100320038
:100450000f000700000020000000e0000200320052
:100460000000020000000000a009020000000000df
:100470000040da000000fe00200020000000e00044
:1004800002003200100020009001880000000600e9
:10049000a1028800800478000000eb001f003700f4
:1004a000e284440054a0b4009905ba00e2844400f8
:1004b00054a0b4009906ba00e284440054a0b400e9
:1004c0000006eb00476fde00fd07b200ae018800ba
:1004d000636ce10003003a000ad801000000eb0061
:1004e0000e003700606ce10008003a00004deb00a0
:1004f0000a05e800020039003420ec000af0a000f0
:100500008b05e900f9ff3e00040037006168e10057
:10051000010032000086eb000b00070019c7ba008b
:100520000e04e0001905ba0003003a000a00e000da
:10053000dbff3a0000000600fe07b200ae028800b2
:100540008a047800f5ff37000cd0a300e20f4d00bd
:100550001c00390089027800354dba000a05e80010
:10056000020039003420ec000af0a0008b05e900fd
:100570000f003200254dba000a05e80002003900dc
:100580003420ec000af0a0008b05e90008003200de
:100590000c00e0000600320015cdba000a05e800a4
:1005a000020039003420ec000af0a0008b05e900bd
:1005b0008984e80054a0b4000b00e000e2ff3a0098
:1005c000000006009902ba00055d78008b05e9007d
:1005d000f7ff3200c82ade00055d78008b05e900d0
:1005e000f3ff32000c00e000f1ff320019ddba0029
:1005f000eeff37000000fa000108a9000080fa00b1
:10060000004006003600f800809fbe00829fbe00ba
:10061000849fbe00869fbe00889fbe000e00fa0029
:100620000068a900050e0700300c07001085800047
:1006300060079800a10020006e0090008101780002
:10064000110009000300d80001f0a7008100ea00b2
:100650008100e900cf08de00814078006e01900043
:100660000200e800108588000104e0004700320025
:1006700031618000d0cc2c000008b8004508de00b5
:100680000041780031668000d0cc2c000008b80012
:100690004508de0000407800024f780010479800bf
:1006a000207180004a00de006140600011c0b3008c
:1006b0002147980030479800207380004700de00f3
:1006c0006140600021c0b300414798005047980046
:1006d000207380004600de006140600031c0b3003e
:1006e00061479800704798000e01780021002000b3
:1006f00000042000320807000e80e80000017800a6
:1007000021002000000220002d080700640047009f
:1007100000017800210020000002200028080700c6
:100720006600470000017800210020000002200040
:100730002308070090a68000a1a6800043010700bf
:1007400080447800d0a68000e1a680003f01070029
:1007500000447800f0a6800001a780003b0107005c
:1007600000407800094f9800184f9800204f9800db
:1007700068004700000178003100200000032000dd
:100780000f080700a2060700130907000080fa00ff
:100790004f04be004f03be004f02be004f01be001b
:1007a0004f00be003600f900004006003600f80099
:1007b000809fbe00829fbe00849fbe00869fbe00b9
:1007c0000000fa000368a900f08480000185800021
:1007d00061004000e0804800f084880001858800c6
:1007e000920307000080fa004f03be004f02be00d4
:1007f0004f01be004f00be003600f9000040060069
:10080000801f78000000fa0001a8a90000188000ed
:1008100030bc88001018800040bc88002018800080
:1008200050bc88003018800060bc880040188000f0
:1008300070bc880010c0b300bbf0b7000080fa00a5
:100840004f007800004006003600f800809fbe0090
:10085000829fbe00849fbe00869fbe000000fa00fb
:100860000188a9005185800040858000808f50005c
:1008700002003200140d070001003700ac70ef00d9
:100880000080fa004f03be004f02be004f01be00c1
:100890004f00be003600f900004006003600f800a8
:1008a000809fbe00829fbe00849fbe00869fbe00c8
:1008b0000000fa000168a9001011800064006000c7
:1008c0000000e000010032002242a9001011800067
:1008d000620060000000e000060032002222a90051
:1008e000050037003011800000407800630d0700dc
:1008f000010037000000000010118000610060005e
:100900000000e000f7ff3a000080fa004f03be004d
:100910004f02be004f01be004f00be003600f9007e
:10092000004006000040da000000fe000000050064
:1009300003f0a200889fbe008a9fbe008c1f780033
:100940006e010700750133006450e1004f00320072
:100950006420e1005200320003826c0007003b007b
:100960000905d0000306d000820f54000c065d007c
:100970000200390002003200890178000306780085
:100980008582550004003d000003fd008103fd0049
:100990008502ea008b854200840f720002003b0052
:1009a00060001000e08018006011b8000005eb0046
:1009b0007a28e1000a00390006007800c75ddd00f2
:1009c000f707b200878075002d0037008281710023
:1009d0000a017800610560008180d1000080d300a9
:1009e0008502e900f9ff3b000604400087844800c7
:1009f00002003b0060041400e0841c000988a3008e
:100a0000070032008a8171008281710061016400f7
:100a10008904d1000884d3008b05e8001700370053
:100a20000978a30013003a000b00e0001300340023
:100a30008b05e9000804440089844c000a447400d2
:100a40000978a3000d003a000b00e0000700340015
:100a50008b05e9000804440089844c0001003a0039
:100a60000b0020000978a300f7ff32000001eb0023
:100a700002003700828171000a017800e40007005b
:100a80000cf0a70001f0a0002d0137006420e10068
:100a900002003a00838f6c002d0133000801be0074
:100aa0000200be00260137000081eb005f01370025
:100ab000889fbe008a9fbe008c1f78000f01070030
:100ac0001601330003866c006450e1002e003200f2
:100ad0006420e100330032006150e1002f00320059
:100ae0006120e1003100320085855500eb07b00040
:100af0000900200008042000050037000804440015
:100b000089844c000a0031000603430087834b00b0
:100b10000001530081815b00f8ff33000203be0037
:100b20000800a0000804440089844c00f6ff390046
:100b3000c639dd008301730001003200130020007c
:100b40008904d1000884d3000998a300050032006d
:100b50000800a7000300a0008904d1000884d30086
:100b60008b05e8008904d1000884d3000001eb0064
:100b70000281d200a600070001f0a1000cf0a7003e
:100b800001f0a000ee0037006420e100f000320028
:100b90000801be000200be00f7ff37006120e1003f
:100ba000eb0032006000b800f3ff370000002000c7
:100bb00001f82700f0ff37001400200086013700fd
:100bc000f4ff2f00840137000001be00b6000700cb
:100bd0000470a70003f0a1006509b10016003200ff
:100be0000d0035006828e10006003500f0ff2f00f9
:100bf000f1ff27000300e00013003b000100280084
:100c00000000050000004000818048008502e900e6
:100c1000fcff3a0008003700f88f420002003c0059
:100c20008000eb00000005008100d1000080d300af
:100c30008502e800fcff3a000300e00002003b00f0
:100c400060001000e0801800000006000001be00f7
:100c5000950007000470a70003f0a10003f8a300ab
:100c600013003a006509b100100032000900350098
:100c70006928e1000200350001002800000005009d
:100c800000004000818048008502e900fcff3a0036
:100c900000000600f88f4200050035008100d100f9
:100ca0000080d3008502e800fcff3a000000060047
:100cb0008000eb00000005004f89de008201780013
:100cc000600137006011b8006e0137000400200099
:100cd00000003700889fbe008a9fbe008c1f7800ee
:100ce0004f26dd00850007008c0033006120e10005
:100cf000430032006250e10041003e003e003900f6
:100d00006420e1003c003200058255000f003b00ea
:100d10000402e80038003a00800f5300818f5b0026
:100d2000350034000800be0003f0a10001f0a60069
:100d300003f0a0000cf0a700fefe070080003700c3
:100d40000603430087834b000c4646000005530012
:100d500081855b00020033000a03be000c00a00086
:100d60000402e900f6ff3b00850578000602430017
:100d700087824b0004003a006000b80009f0a70029
:100d800001f0a0006e0037000002520081825a007c
:100d90000704e000040033000603430087834b0090
:100da0008b05e900faff3700090578000604be004c
:100db0000203be006011b80015000700e00f5200ea
:100dc000e08f5a000700350002003c000c08a30029
:100dd000040032000601be0003f0a0000cf0a700e2
:100de000d4fe07000a85680001f0a1000af0a70000
:100df00001f0a000520037000800be00500037008c
:100e0000100220000cf0a600f0858800500037008a
:100e100081002000618055000b003d000b00200088
:100e200061fe2f000100e1001d003400828171008d
:100e3000610164008904d1000884d3000000e80047
:100e4000faff3a00710020006100640003007000a6
:100e5000020060000900320061044400e0844c009c
:100e60000988a500050032008b05e8006808e1004c
:100e700002003a008904d1000884d300f20f200058
:100e80000258e10005003d00c75ddd00f907b20032
:100e90008980750008007800000006000bf8270024
:100ea0008b00780000000500c70ade00f107b200e1
:100eb000f50fb20008003200e1cf4200020032001c
:100ec0000170a00024000500810f700001003200b5
:100ed0000408050044000500810f700002003a007c
:100ee000140005008502e9000000400081c04800b0
:100ef000fcff3b000170a000240005000004be00c0
:100f0000e9ff07000003be000405be000200be00aa
:100f1000e5ff0700844f7500000006000200be00d8
:100f20006450e100050036006420e1000200360054
:100f30000968a30001003a000800be000160a0009b
:100f40004f0678004f05be004f04be0000000600ab
:100f5000f0ff2f00f1ff2700f9ff3700889fbe0048
:100f60008a9fbe008c1f7800e4ff0700ebff330070
:100f700003866c006450e100240032006420e1002c
:100f8000270032006150e100220032006120e100c0
:100f9000210032008b854200eb07b1000134b8001c
:100fa000003ab8000804420089844a00013ab800b7
:100fb0000030b8008880400009014a000400330076
:100fc0000000400081804800020149008b05e900d3
:100fd000c909dd0083017000010032001300200008
:100fe000c814de004814dd004709de001200b2001c
:100ff000c808de000884700085ff070001f0a1002a
:101000000cf0a70001f0a000cdff37006120e10047
:10101000cfff32000801be000200be00f7ff37001c
:101020006150e100fcff3a00c9ff3700889fbe0015
:101030008a9fbe008c9fbe00820578000004be001f
:1010400099ff07000800be006420e1000700390096
:1010500002003a00f1ff2700f0ff2f000160a0001e
:1010600012022000f2858800550037006120e1005f
:1010700003003a000b00a70001f8230050003700de
:1010800001f0a1000200210093642400cafe0700c1
:101090000800be0004003500b2fd2000930c2400bf
:1010a0000aff07000004be000005eb000b00a600cd
:1010b0004f0dde0001f0a1000004be0032982f00a9
:1010c00023ea2300a5ff07000001eb0003f0230043
:1010d0000b00a70003f8230016fe0700bafe070066
:1010e0000000a7000a00a200f3fe07000b00e000ca
:1010f000030032000200200003f023000cfe070072
:1011000001f0a2000006be000200200093042400ab
:1011100092ff07000801be0006fe0700809fbe0088
:101120000c00be0022a22a00d3a723008bff0700d9
:101130004f01be00fffd07000004be0001f0a1004a
:1011400002002000039823009bfe07000800be0059
:10115000190035000001be0080ff07000006be0038
:10116000b2c52900e36223007cff070022222b0086
:10117000f3942b00effd07000c01be0077ff070082
:10118000e273280083c02300eafd07000c01be00c3
:1011900072ff070042aa2a00a3e22b00e5fd070028
:1011a0000c01be006dff07000801be006bff0700c9
:1011b0000801be00dffd07000a00a70001f0a20041
:1011c0004f06be004f05be004f04be0000000600e3
:1011d0000001eb0095ff3700889fbe008a9fbe008c
:1011e000841f780045ff07004f007800110033008e
:1011f000f0ff2f00838f6c0006003b0004056500a4
:101200000a00a7000800370009f0a600100020001f
:1012100008003700820f5400838f5c000300390000
:101220001000200001003e000000200009f0a7008f
:101230000000ea004f05be004f04be000000e000c1
:1012400000000600881f7800030478000300e00017
:1012500007003d0060001000e080180060011900e8
:10126000e081190002003b0001f02d00030037006f
:101270000400070008f0a70001f0a0004f04780068
:1012800000000600889fbe008a9fbe00008270009a
:101290000402710004827100260032000004be00c6
:1012a0000200be006011b8006b092000950220000a
:1012b0000182cf000a0039000541b1000082cf0051
:1012c000070039000541b1000982cf000400390050
:1012d0000541b1000882cf00010039000541b1008d
:1012e00005425200120032000a003b008281710068
:1012f000610164008100d1000080d3008984d300a3
:101300000884d3008b05e8000442e800f7ff3a00a8
:10131000070037000804440089844c00000048009e
:10132000818048008b05e9000442e900f9ff3a009a
:10133000b7fe07004f05be004f04be0000000600c8
:020000040000fa
:101340000600fa00c00b07008b0b0700cb08070054
:10135000800a0700f2030700d80307006b040700a8
:101360000b0b0700af020700b7020700bb0a07001c
:10137000e14f500083003a00bc0a0700b30a07009f
:10138000000f78001e007800100078008000eb004d
:101390004cfe07003233230033052400effe070024
:1013a0000200200003582400c1fd0700d2cc2c000d
:1013b000c3042400e9fe07001007980021079800e5
:1013c0001e019000ae01900000002000812024004a
:1013d000b7fd070002002000030a240054fd0700a7
:1013e000b0a68800c1a688001e80e8001000780022
:1013f0008000eb0033fe0700323323003305240066
:10140000d6fe07000200200003582400a8fd0700b4
:10141000d2cc2c00c3042400d0fe07001007980093
:10142000210798001e019000ae01900000002000ee
:10143000812024009efd070002002000030a2400f2
:101440003bfd070090a68800a1a688009e007800ba
:1014500064804000100078008000eb0019fe070057
:101460003233230033052400bcfe070002002000b5
:10147000035824008efd0700d2cc2c00c3042400a6
:10148000b6fe070010079800210798001e01900083
:10149000ae019000000020008120240084fd0700a0
:1014a00002002000030a240021fd0700d0a68800c6
:1014b000e1a688009e007800688040001000780057
:1014c0008000eb00fffd07003233230033052400ca
:1014d000a2fe0700020020000358240074fd07004c
:1014e000d2cc2c00c30424009cfe070010079800f7
:1014f000210798001e019000ae019000000020001e
:10150000812024006afd070002002000030a240055
:1015100007fd0700f0a6880001a788009e0078005c
:1015200066804000100078008000eb00e5fd0700b9
:10153000323323003305240088fe07000200200018
:10154000035824005afd0700d2cc2c00c304240009
:1015500082fe070010079800210798001e019000e6
:10156000ae019000000020008120240050fd070003
:1015700002002000030a2400edfc070010a78800e9
:1015800021a788009830ef00070037004f0a0700b6
:101590009af0b7009ad0bf00e2040700c084800030
:1015a0000000e800c0848800730a0700800078000b
:1015b000c0848000808f5000f4ff3e002b020700a3
:1015c0006aff37000200fa00004f78001e417800e1
:1015d000b1092100824878000080fa00000006006e
:1015e0000200fa00004f78001e4078000004e0007e
:1015f00006003a00b070ef00c0c0b3009bf0b70027
:1016000064eea800254ea800060037001e407800b2
:10161000e14f500003003a0010c0b300b0f0b70033
:101620009b70ef000080fa00000006000000fa0046
:10163000a0848000e10f500006003a00f000200076
:101640007085880064cea90064eea900254ea9002b
:1016500011003700a0848000e20f500006003a001d
:10166000400120007085880064cea90064eea900c6
:10167000254ea90008003700a0848000e30f500029
:1016800005003a00e00120007085880064cea900c2
:1016900064eea900254ea9009bd0bf000080fb008e
:1016a000cf80de007201200003002000820f500076
:1016b000838f5800ba003e00000601001700370073
:1016c0002000370032003700410037006900370042
:1016d00072003700730037007c0037007d00370050
:1016e0008700370088003700920037001f0037005e
:1016f000ae003700380037004200370043003700a3
:101700004d0037004e003700580037008b0037007f
:1017100095003700960037009f0037009e30ef009d
:10172000a030ef000001eb006000b8009008070057
:10173000120020006000b8008d08070010c0b30040
:101740009bf0b700f284800003858000803e20007b
:1017500001002000800f5100818f59009500360054
:1017600020c0b3009bf0b700930037000001eb00ee
:101770006000b8007e080700120020006000b8007a
:101780007b080700d0c0b3009bf0b7008a00370089
:10179000b08480000000e800b0848800708580007c
:1017a0008000eb0047fd07000001eb007008070018
:1017b000708580008000eb0042fd070012002000d1
:1017c0006b08070030c0b3009bf0b7007a00370009
:1017d0007b000700780037000001eb0000002000cc
:1017e00001172c00620807001200200000002000f2
:1017f00001172c005e080700f0c0b3009bf0b70093
:101800006d0037006e0007006b0037000001eb0031
:1018100000002000011724005508070012002000d6
:1018200000002000011024005108070010c1b3007f
:101830009bf0b70060003700610007005e003700d2
:101840000001eb0000002000011024004808070000
:1018500012002000000020000117240044080700a7
:1018600030c1b3009bf0b7005300370054000700ad
:10187000510037000001eb00000020000117240098
:101880003b080700120020006000b800380807007d
:1018900050c0b3009bf0b700470037004800070076
:1018a000450037000001eb006000b8003008070079
:1018b0001200200000002000011724002c0807005f
:1018c00070c0b3009bf0b7003b0037003c0007003e
:1018d000390037000001eb0000002000011a24004d
:1018e000230807001200200000002000011a2c002d
:1018f0001f08070090c0b3009bf0b7002e00370010
:101900002f0007002c0037000001eb000000200032
:10191000011a2c0016080700120020000000200009
:10192000011a240012080700b0c0b3009bf0b700f2
:1019300021003700220007001f0037000001eb00e4
:1019400000002000011024000908070012002000f8
:101950006000b800060807001201070050c1b3007c
:101960009bf0b70014003700150007001200370085
:101970000001eb006000b800fd0707001200200026
:101980000000200001102400f907070070c1b30017
:101990009bf0b70008003700090007000600370079
:1019a0009b70ef0000000000030037000000000003
:1019b00001003700000000000080fa00000006006f
:1019c0000200fa00881f7800b0d0bf00e14f50003d
:1019d000f1003a000040eb00004f780010a78000b3
:1019e00021a7800018c0b30002002000031a2400c1
:1019f00071fc07000000e000010035000044eb002e
:101a00000804e0002c003a00f0a6800001a7800046
:101a100018c0b30002002000031f240066fc07006a
:101a20000000e000010035000044eb000804e00085
:101a300021003a00d0a68000e1a6800018c0b300c3
:101a400002002000c32024005bfc07000000e0002f
:101a5000010035000044eb000804e00016003a00e5
:101a600090a68000a1a6800018c0b300020020004c
:101a7000031f240050fc07000000e00001003500b7
:101a80000044eb000804e0000b003a00b0a6800020
:101a9000c1a6800018c0b30002002000031a240071
:101aa00045fc07000000e000010035000044eb00a9
:101ab0000804e0000500320010002000a084880027
:101ac0000e060700004f78007300370010a7800053
:101ad00021a7800018c0b3000200200003222400c8
:101ae00035fc07000000e000010035000044eb0079
:101af0000804e0002c003a00f0a6800001a7800056
:101b000018c0b30002002000832424002afc070030
:101b10000000e000010035000044eb000804e00094
:101b200021003a00d0a68000e1a6800018c0b300d2
:101b300002002000032724001ffc07000000e00033
:101b4000010035000044eb000804e00016003a00f4
:101b500090a68000a1a6800018c0b300020020005b
:101b60008324240014fc07000000e000010035007d
:101b70000044eb000804e0000b003a00b0a680002f
:101b8000c1a6800018c0b300020020000322240078
:101b900009fc07000000e000010035000044eb00f4
:101ba0000804e0000300320020002000a084880028
:101bb0003900370010a7800021a7800018c0b300ab
:101bc0000200200003222400fdfb07000000e000cb
:101bd00001003d000044eb000804e0002c003a0046
:101be000f0a6800001a7800018c0b300020020000a
:101bf00083242400f2fb07000000e00001003d0008
:101c00000044eb000804e00021003a00d0a6800068
:101c1000e1a6800018c0b3000200200003272400c2
:101c2000e7fb07000000e00001003d000044eb007e
:101c30000804e00016003a0090a68000a1a68000eb
:101c400018c0b3000200200083242400dcfb07003e
:101c50000000e00001003d000044eb000804e0004b
:101c60000b003a00b0a68000c1a6800018c0b300e7
:101c70000200200003222400d1fb07000000e00046
:101c800001003d000044eb000804e00002003200c7
:101c900030002000a08488001e4078000004e0008e
:101ca00003003a0020c0b3009cf0b70030003700ba
:101cb0001e407800e34f500003003a0000c1b3001b
:101cc0009cf0b7002a0037001e407800e14f50001a
:101cd00003003a0020c1b3009cf0b7002400370095
:101ce0001e407800e44f500003003a0040c0b300ab
:101cf0009cf0b7001e0037001e407800e24f5000f5
:101d000003003a0060c0b3009cf0b7001800370031
:101d10001e407800e54f50000a003a00b084800071
:101d2000610060000000e00003003a0080c0b300e2
:101d30009cf0b7000e003700a0c0b3009cf0b700c5
:101d40000b0037001e407800e64f500003003a00b9
:101d500040c1b3009cf0b700050037001e4078007a
:101d6000e74f500002003a0060c1b3009cf0b7009a
:101d70009cd0bf008080fb009bd0bf000080fb0098
:101d80000000e900808f5000030032009cd0bf00ab
:101d90009bf0b700030007004f0478000080fa00b2
:101da000000006000600fa00b509210095427800ff
:101db000f0848000018580004808de000042780041
:101dc000f0848000018580004008de0080417800ba
:101dd000f0848000018580004809dd004800de00b5
:101de00000007100c808de0000417800f084800027
:101df0000185800000407800054f78001447980066
:101e00002347980032479800404798000e01780019
:101e10005100200000052000690207000080fa0040
:101e2000000006000000fa00c301a8000080eb00db
:101e3000e00e88000080eb00f00e8800c1e1a800f1
:101e40000080fa00000006000000fa00c305a800a8
:101e50000080eb00e02e88000080eb00f02e880070
:101e6000c1e5a8000080fa00000006000800fa00a2
:101e7000889fbe008a9fbe0080838000918380007f
:101e80004083880051838800a0838000b183800054
:101e9000608388007183880070848000e10f5000a7
:101ea00006003a006000b800408388005183880033
:101eb0006000b8006083880071838800300e800065
:101ec0008000eb00008fbe00500e80008000eb0011
:101ed000c000dd00000020001e0f40005e9748009b
:101ee000302e80008000eb0020079800310798001a
:101ef000502e80008000eb00c000dd0000002000bc
:101f00002e019000be019000020040008380480036
:101f100020079800310798001e0078009e0090006e
:101f200065fb0700d25d2b0043c823000bfc0700b4
:101f300080838800918388002e009000be0090006e
:101f40005dfb0700d25d2b0043c82b0003fc07009c
:101f5000a0838800b18388008483800095838000fb
:101f600040838000518380000001be000400be0059
:101f70006ffa0700c0838800d1838800a4838000a3
:101f8000b583800060838000718380000001be0003
:101f90000400be0066fa0700e0838800f183880031
:101fa000c4838000d5838000e0838000f1838000bb
:101fb0000001be000400be005dfa07000200200020
:101fc00093352400bafa0700008488001184880041
:101fd000c4838000d5838000e0838000f18380008b
:101fe0000001be000400be0052fa070002002000fb
:101ff00003002400aefa07002084880031848800a2
:10200000c0838000d183800002002000a337240019
:10201000d2fb070030a7880041a78800e08380003a
:10202000f183800002002000a3372400cbfb0700cf
:1020300050a7880061a7880034a7800045a78000ca
:1020400050a7800061a780000001be000400be0010
:1020500038fa0700020020000300240094fa070069
:1020600070a7880081a78800008480001184800008
:1020700002002000a3372400b8fb070090a78800c7
:10208000a1a7880010a8800021a88000b0a7880020
:10209000c1a7880030a8800041a88000d0a7880090
:1020a000e1a7880050a8800061a88000f0a7880000
:1020b00001a88800b8a78000c9a7800070a7800089
:1020c00081a7800002002000a337240078fa0700cf
:1020d0000005be00f0a7800001a8800072fa07008a
:1020e0000001be000a00be009cfb07000001be000c
:1020f0000800be000ffa070010a8880021a8880079
:10210000d8a78000e9a7800070a7800081a7800081
:1021100002002000a337240065fa07000005be0076
:10212000f0a7800001a8800029fc07000001be0084
:102130000a00be0089fb07000001be000800be00c7
:10214000fcf9070030a8880041a88800f4a78000a7
:1021500005a8800000848000118480000001be007a
:102160000400be00f3f9070050a8880061a88800a9
:1021700050a8800061a8800018c0b300b2fd200004
:10218000930424008efa07000000e00001003c00e8
:102190000044eb000804e0000700320050a8800073
:1021a00061a88000b2fd2000930c2400e0f9070034
:1021b00050a8880061a8880050a8800061a880000d
:1021c00018c0b300b2fd200093042c007afa070077
:1021d0000000e000010035000044eb000804e000ce
:1021e0000700320050a8800061a88000b2fd2000e6
:1021f000930c2400cff9070050a8880061a888003c
:102200004f05be004f04be000080fa00000006002b
:102210001800fa00f0848000018580000001be00f3
:102220008000eb000e0078000104070010a8800079
:1022300021a880000001be00410020000e007800af
:10224000e203070030a8800041a880000001be0022
:10225000810020000e007800dc03070050a88000f9
:1022600061a880000001be00c10020000e007800bf
:10227000d603070070a7800081a780000001be0080
:10228000010120000e007800d003070090a7800015
:10229000a1a780000001be00410120000e007800cf
:1022a000ca0307000e0178008101200010062000fb
:1022b000430107000080fa00000006000000fa0059
:1022c00013e1a90011e1a9001061a8001021a900e3
:1022d00081088000f0fc2f000080600080088800ea
:1022e0000a21ef000621ef00404c20007008880012
:1022f00000402b00600888002142800080ff2f00f2
:10230000008060000000a000204288000108a900b1
:102310002108a80011e1a8000080fa0000000600d2
:102320000000fa0005e1a9000421a9000000200036
:10233000a1372400050007000068a9002068a80054
:1023400005e1a8000080fa00000006000400fa0081
:10235000881f7800008fbe001e0178009e0190004b
:102360000068290081c12400d1f9070018c0b3001a
:1023700002f02f00f377240011fa07000000e000bc
:1023800001003c000044eb000804e000540032006f
:1023900021088000f0fc2f00008060000040a000b9
:1023a000200888001e0178009e0190000068290026
:1023b00081c12400bef907000200200003102400a0
:1023c000bbf9070018c0b30002f02f00f377240018
:1023d000fbf907000000e00001003c000044eb00b6
:1023e0000804e0003200320021088000f0fc2f00d9
:1023f000008060000050a000200888001e017800c6
:102400009e0190000068290081c12400a8f90700fe
:102410000200200003282400a5f9070018c0b3001b
:1024200002f02f00f3772400e5f907000000e00038
:1024300001003c000044eb000804e0001000320002
:10244000210880000003200001007000200888009f
:102450001e0178009e0190000068290081c12400bf
:1024600093f90700020020000338240090f90700c8
:10247000d5f9070000007800100888002000370018
:102480001e0178009e0190000068290081c124008f
:1024900087f90700020020000328240084f90700c0
:1024a000c9f9070000007800100888001400370000
:1024b0001e0178009e0190000068290081c124005f
:1024c0007bf90700020020000310240078f90700c0
:1024d000bdf90700000078001008880008003700e8
:1024e0001e0178009e0190000068290081c124002f
:1024f0006ff90700b4f907000000780010088800a1
:102500004f0478000080fa00000006000000fa0086
:102510001fe1a90000002000a147240006000700d9
:102520001e21a9000368a9002368a8001fe1a800d4
:102530000080fa00000006000400fa00881f7800fe
:10254000008fbe00f1088000f0fc2f0000806000ca
:10255000f00888001e0178009e01900000682900a4
:1025600081c1240052f9070018c0b30002f02f0007
:10257000f377240092f907000000e00001003c001e
:102580000044eb000804e00054003200f108800031
:10259000f0fc2f00008060000040a000f0088800e0
:1025a0001e0178009e0190000068290081c124006e
:1025b0003ff9070002002000031024003cf9070047
:1025c00018c0b30002f02f00f37724007cf9070055
:1025d0000000e00001003c000044eb000804e000c3
:1025e00032003200f1088000f0fc2f000080600013
:1025f0000050a000f00888001e0178009e019000a5
:102600000068290081c1240029f907000200200088
:102610000328240026f9070018c0b30002f02f0099
:10262000f377240066f907000000e00001003c0099
:102630000044eb000804e00010003200f1088000c4
:102640000003200001007000f00888001e017800df
:102650009e0190000068290081c1240014f9070040
:10266000020020000338240011f9070056f9070082
:1026700000007800d0088800200037001e01780094
:102680009e0190000068290081c1240008f907001c
:10269000020020000328240005f907004af907007a
:1026a00000007800d0088800140037001e01780070
:1026b0009e0190000068290081c12400fcf80700f9
:1026c0000200200003102400f9f807003ef907007b
:1026d00000007800d0088800080037001e0178004c
:1026e0009e0190000068290081c12400f0f80700d5
:1026f00035f9070000007800d00888004f04780002
:102700000080fa00000006000a00fa002007980086
:102710003107980042079800e0cfb30020479800a7
:102720002e0090004880de00804078002e4090000f
:1027300000c06800204798002e009000804078007c
:102740002e40900000c06800204798003e00900096
:102750004880de00804078002e40900000c0680075
:10276000204798003e009000804078002e40900066
:1027700000c06800204798000000eb00000f7800c0
:10278000080037001e007800ce0090000080400056
:1027900010407800ae40900000c0680020479800cc
:1027a0001e0fe8003e0090009e007800808f5000d1
:1027b000f4ff35002e4090000080fa000000060073
:1027c0000e00fa00889fbe0040079800510798004d
:1027d000620798000f0478000f00780080047800ea
:1027e0000000eb00000f78005e00900066004000e3
:1027f0008000e900210798000000e8000000e800e0
:102800000000d100800040000f0078008187470061
:102810000000e8000000d1000000400030079800f0
:102820003e0090001e004000e1cfb3000148780058
:102830001e0fe8004e0090004880de0080407800c7
:102840003e0090001e004000014878001e0fe80086
:102850004e009000804078003e0090001e00400036
:10286000014878001e0fe8005e0090004880de00fe
:10287000804078003e0090001e0040000148780033
:102880001e0fe8005e009000804078003e0090003f
:102890001e004000014878001e0fe8000000eb0019
:1028a000100798000b0037001e009000ee0090000b
:1028b00000804000904078003e0090001e004000e4
:1028c000014878001e0fe8001e0090000000e8009c
:1028d000100798009e0090005e009000808f5000ce
:1028e000f1ff35006e019000de0090004e00900078
:1028f00085ff0700be0090009e8040008048780061
:102900001e0fe8003e0090009e007800b004070013
:1029100089077800880778004f04be000080fa001d
:10292000000006000400fa00204798009084800010
:10293000e30f500023003200e30f500005003e007b
:10294000e10f500013003200e10f500015003e006f
:1029500007003700e50f50002d003200e50f500052
:102960001c003900e60f5000380032004b003700e1
:102970002e409000e24f400002003a00100020007c
:10298000908488008830ef008c30ef008a30ef00b0
:10299000460037008830ef00200020009084880037
:1029a000420037002e4090008080fb004084800071
:1029b000008040004084880030002000908488001f
:1029c0003a0037008a30ef004000200090848800f1
:1029d000360037002e4090008080fb00508480003d
:1029e0000080400050848800508480000000e00097
:1029f000040032008c30ef005000200090848800ea
:102a00002a003700600020009084880027003700eb
:102a1000608480006170210000804000ae40900022
:102a200001487800608480000000e800608488002d
:102a30006184800050848000808f50001a0035002f
:102a4000600020009084880018003700ae4090009d
:102a500002092100014978005184800040848000ef
:102a60006270210028ff0700004f780090d0bf005f
:102a70009e40780080cf500006003a0050848000cd
:102a8000804078004084800000407800627021001f
:102a9000080007009230ef00040037009230ef008a
:102aa0000000000001003700000000000080fa0074
:102ab000000006000400fa00004f7800114798005b
:102ac000120798001e80fb0021052000810f500096
:102ad0000e00320021052000810f500004003c0050
:102ae00011052000810f5000050032001000370052
:102af00021062000810f50000a0032000c00370030
:102b00001e00900010407800aefa07001e009000f2
:102b100010407800b2fa070064eea800254ea80025
:102b200003003700100020007084880000000000bf
:102b30000080fa00000006000e00fa00000f780086
:102b4000120798002307980034079800450798005b
:102b500056079800670798001e0078001e01900035
:102b6000ae01900002089800130898001e0078003b
:102b70003eb99700ceb99700620898007308980094
:102b80001e0078003e019000ce01900022089800bf
:102b9000330898001e0078001eb99700aeb9970060
:102ba00002109800131098001e0078005e0190003b
:102bb000ee01900042089800530898001e0078002b
:102bc0007eb197008eb997002210980033109800bc
:102bd0000080fa00000006000200fa000000eb008e
:102be000000f780000808000118080000001be008e
:102bf0009e007800e06121007401070020808000c1
:102c0000318080001e017800640f41000001be0089
:102c10009e007800e06121006c01070070a7800031
:102c200081a780001e017800640f41000001be00f2
:102c30009e007800e06121006401070090a78000f9
:102c4000a1a780001e017800640f41000001be00b2
:102c50009e007800e06121005c0107008080800018
:102c6000918080001e017800640f41000001be00c9
:102c70009e007800e061210054010700a0808000e0
:102c8000b18080001e017800640f41000001be0089
:102c90009e007800e06121004c010700c0808000a8
:102ca000d18080001e017800640f41000001be0049
:102cb0009e007800e061210044010700e080800070
:102cc000f18080001e017800640f41000001be0009
:102cd0009e007800e06121003c0107000081800037
:102ce000118180001e017800640f41000001be00c8
:102cf0009e007800e06121003401070020818000ff
:102d0000318180001e017800640f41000001be0087
:102d10009e007800e06121002c01070040818000c6
:102d2000518180001e017800640f41000001be0047
:102d30009e007800e061210024010700608180008e
:102d4000718180001e017800640f41000001be0007
:102d50009e007800e06121001c0107008081800056
:102d6000918180001e017800640f41000001be00c7
:102d70009e007800e061210014010700a08180001e
:102d8000b18180001e017800640f41000001be0087
:102d90009e007800e06121000c010700c0818000e6
:102da000d18180001e017800640f41000001be0047
:102db0009e007800e061210004010700e0818000ae
:102dc000f18180001e017800640f41000001be0007
:102dd0009e007800e0612100fc0007000082800076
:102de000118280001e017800640f41000001be00c6
:102df0009e007800e0612100f4000700208280003e
:102e0000318280001e017800640f41000001be0085
:102e10009e007800e0612100ec0007004082800005
:102e2000518280001e017800640f41000001be0045
:102e30009e007800e0612100e400070060828000cd
:102e4000718280001e017800640f41000001be0005
:102e50009e007800e0612100dc0007008082800095
:102e6000918280001e017800640f41000001be00c5
:102e70009e007800e0612100d4000700a08280005d
:102e8000b18280001e017800640f41000001be0085
:102e90009e007800e0612100cc000700c082800025
:102ea000d18280001e017800640f41000001be0045
:102eb0009e007800e0612100c4000700e0828000ed
:102ec000f18280001e017800640f41000001be0005
:102ed0009e007800e0612100bc00070000838000b4
:102ee000118380001e017800640f41000001be00c4
:102ef0009e007800e0612100b4000700208380007c
:102f0000318380001e017800640f41000001be0083
:102f10009e007800e0612100ac0007009e00780070
:102f2000648f4000e26121009e007800500720007d
:102f300023fe07000080fa00000006000400fa00eb
:102f4000881f7800008fbe0018c0b3006011b80061
:102f50001e0078009e00900019f707000000e000b6
:102f600001003d000044eb000804e00003003200d3
:102f70001e0078009e009000030037001e007800bd
:102f80009e00900001f0a2004f0478000080fa003b
:102f9000000006000800fa00881f7800008fbe00bd
:102fa000220798003307980018c0b3002e01900044
:102fb000be0190001e0078009e00900000f7070000
:102fc0000000e00001003c000044eb000804e000c9
:102fd000030032001e0078009e00900002003700bf
:102fe0002e009000be0090004f0478000080fa0090
:102ff000000006000800fa00881f7800008fbe005d
:10300000220798003307980018c0b3002e019000e3
:10301000be0190001e0078009e009000e6f60700ba
:103020000000e000010035000044eb000804e0006f
:10303000030032001e0078009e009000020037005e
:103040002e009000be0090004f0478000080fa002f
:10305000000006000c00fa00881f7800008fbe00f8
:1030600022079800330798004407980055079800f6
:1030700018c0b3002e019000be0190001e00780021
:103080009e009000ccf607000000e0000100350033
:103090000044eb000804e000030032002e00900022
:1030a000be0090001000370018c0b3004e01900021
:1030b000de0190001e0078009e009000c0f6070020
:1030c0000000e00001003c000044eb000804e000c8
:1030d000030032004e009000de0090000200370036
:1030e0001e0078009e0090004f0478000080fa00d7
:1030f000000006000800fa00200798003107980039
:10310000b2fd2000930424002e009000be00900029
:1031100007f60700b2fd2000930c2400ebf6070031
:10312000b2fd20009304240002f60700008fbe00c9
:10313000b2fd2000930424001e0078009e00900041
:10314000fcf50700b2fd2000930c2400dff6070019
:10315000b2fd200093042400f5f507000080fa007a
:10316000000006000a00fa003007980041079800a6
:10317000be0090004e009000008f40001e007800be
:103180001001780090019000120798002307980022
:103190001e009000ae0090000080fa0000000600c3
:1031a0000600fa0010079800210798009e00900082
:1031b0002e009000008f40001e00780090009000cc
:1031c000100078000080fa00000006000c00fa00f1
:1031d000200798003107980042079800530798008d
:1031e00068004700100798000000eb00000f78000f
:1031f0000a0037003e0090001e004000ae00900024
:10320000008040009e0078001e0190008100410077
:1032100091407800014878001e0fe8001e007800f9
:10322000e30f5000f3ff34000080fa0000000600b6
:103230000c00fa0020079800310798004207980018
:103240005307980068004700100798000000eb0043
:10325000000f78000b0037003e0090001e00400079
:10326000ae00900000804000320020009e0051001f
:103270001e019000810041009140780001487800d3
:103280001e0fe8001e007800e30f5000f2ff34002c
:103290000080fa00000006000c00fa0020079800e9
:1032a00031079800420798005307980068004700cc
:1032b000100798000000eb00000f78000a003700ac
:1032c0003e0090001e004000ae00900000804000d4
:1032d0009e0078001e01900081004100914078001e
:1032e000014878001e0fe8001e007800e70f50002c
:1032f000f3ff34000080fa00000006000000fa002e
:10330000881f7800f0a6800001a7800018c0b300d5
:1033100002002000831c240027f607000000e000c4
:10332000010035000044eb000804e0000e0032000c
:1033300090a68000a1a6800018c0b3000200200063
:10334000831c24001cf607000000e000010035008b
:103350000044eb000804e0000300320050002000ad
:10336000e0858800c1003700d0a68000e1a680007b
:1033700018c0b30002002000c32024000ef607008e
:103380000000e000010035000044eb000804e0000c
:103390000300320050002000e0858800b3003700b1
:1033a000f0a6800001a7800018c0b3000200200032
:1033b000c320240000f607000000e00001003500f3
:1033c0000044eb000804e00019003200d0a68000a1
:1033d000e1a6800018c0b30002002000831c240076
:1033e000f7f507000000e00001003c000044eb009e
:1033f0000804e0000e00320090a68000a1a6800024
:1034000018c0b30002002000c3202400ecf5070020
:103410000000e00001003c000044eb000804e00074
:103420000300320020002000e08588008f00370074
:10343000f0a6800001a7800018c0b30002002000a1
:10344000c3202400def507000000e00001003c007e
:103450000044eb000804e00019003200d0a6800010
:10346000e1a6800018c0b30002002000831c2400e5
:10347000d3f507000000e00001003c000044eb0031
:103480000804e0000e00320090a68000a1a6800093
:1034900018c0b30002002000c3202400c6f50700b6
:1034a0000000e000010035000044eb000804e000eb
:1034b0000300320040002000e08588006b003700e8
:1034c00010a7800021a7800018c0b30002002000d0
:1034d00003122400b8f507000000e00001003500e9
:1034e0000044eb000804e00041003200b0a6800078
:1034f000c1a6800018c0b3000200200003122400ff
:10350000adf507000000e000010035000044eb00cd
:103510000804e0003600320014a7800025a78000d0
:10352000b0a68000c1a6800018c0b3000001be0094
:103530000400be00a0f507000000e0000100350017
:103540000044eb000804e0000b003a00f0a6800005
:1035500001a7800018c0b30002002000030a240065
:1035600095f507000000e000010035000044eb0085
:103570000804e0000300320060002000e0858800bd
:103580003a00370014a7800025a78000b0a680006d
:10359000c1a6800018c0b3000001be000400be0038
:1035a00087f507000000e00001003c000044eb004c
:1035b0000804e0000b003a0090a68000a1a680005d
:1035c00018c0b30002002000030a24007af50700a7
:1035d0000000e000010035000044eb000804e000ba
:1035e0002100320070002000e08588001f003700b5
:1035f00010a7800021a7800018c0b300020020009f
:10360000031724006cf507000000e00001003500fe
:103610000044eb000804e00003003200100020002a
:10362000e085880011003700b0a68000c1a68000a8
:1036300018c0b30002002000031724005ef5070045
:103640000000e000010035000044eb000804e00049
:103650000300320030002000e085880003003700be
:10366000bc30ef000100370000000000e085800062
:103670004f0478000080fa00000006000000fa0005
:103680001160800080ff2f000080600010608800c3
:1036900000fa20002060880023aca800238ca8003a
:1036a00011618000f03f2f000080600000a0a000aa
:1036b000106188003000200020618800c3aca800a1
:1036c000c38ca80011668000f03f2f0000806000ce
:1036d00000a0a0001066880030002000206688004e
:1036e00001eca8000080fa00000006000000fa00cb
:1036f000889fbe0074a6800085a6800050a680002a
:1037000061a6800018c0b3000001be000400be0026
:1037100029f507000000e000010035000044eb003f
:103720000804e0000d00320058a6800069a6800061
:1037300074a6800085a6800090858000a185800009
:103740000001be000400be007af407000801be00bc
:10375000c600070070a6880081a6880074a68000b5
:1037600085a6800050a6800061a6800018c0b30026
:103770000001be000400be0011f507000000e000db
:1037800001003c000044eb000804e0000d003200a2
:1037900058a6800069a6800074a6800085a68000d7
:1037a00090858000a18580000001be000400be005d
:1037b0005ff407000801be009400070070a68800af
:1037c00081a6880070a6800081a6800018c0b30082
:1037d0006011b800faf407000000e00001003c00ae
:1037e0000044eb000804e00004003200c3eca90030
:1037f00024cea800c3cca80003003700c3cca90086
:1038000024eea800c3eca80070a6800081a680006a
:10381000680007000200200003222400cff5070003
:103820000af50700000078003066880034a68000a2
:1038300045a6800010a6800021a6800018c0b30015
:103840000001be000400be00dbf407000000e00041
:10385000010035000044eb000804e0000d003200d8
:1038600018a6800029a6800034a6800045a6800006
:1038700090858000a18580000001be000400be008c
:103880002cf407000801be007800070030a688006d
:1038900041a6880034a6800045a6800010a68000be
:1038a00021a6800018c0b3000001be000400be00c5
:1038b000c3f407000000e00001003c000044eb00fe
:1038c0000804e0000d00320018a6800029a6800040
:1038d00034a6800045a6800090858000a1858000e8
:1038e0000001be000400be0011f407000801be0084
:1038f0004600070030a6880041a6880030a6800058
:1039000041a6800018c0b3006011b800acf40700f5
:103910000000e00001003c000044eb000804e0006f
:103920000400320023cca90015eea80023eca80067
:103930000300370023eca90015cea80023cca80073
:1039400030a6800041a680001a0007000200200077
:103950000322240081f50700bcf407000000780072
:10396000306188004f04be000080fa0000000600ad
:103970000600fa00008fbe00220798002e0090007b
:103980000000e00005003a001e0178009e01900052
:1039900052a6880063a68800040037001e01780044
:1039a0009e01900012a6880023a688000080fa00dd
:1039b000000006000400fa00881f7800008fbe0097
:1039c00018c0b3006011b8001e0078009e0090007f
:1039d0007bf407000000e00001003d000044eb0024
:1039e0000804e000030032001e0078009e009000f2
:1039f000030037001e0078009e00900001f0a20036
:103a00004f0478000080fa00000006000800fa0069
:103a1000881f7800008fbe002207980033079800a7
:103a200018c0b3002e019000be0190001e00780067
:103a30009e00900062f407000000e00001003c00de
:103a40000044eb000804e000030032001e00780090
:103a50009e009000020037002e009000be009000f3
:103a60004f0478000080fa00000006000800fa0009
:103a7000881f7800008fbe00220798003307980047
:103a800018c0b3002e019000be0190001e00780007
:103a90009e00900048f407000000e000010035009f
:103aa0000044eb000804e000030032001e00780030
:103ab0009e009000020037002e009000be00900093
:103ac0004f0478000080fa00000006000c00fa00a5
:103ad000881f7800008fbe002207980033079800e7
:103ae000440798005507980018c0b3004e01900095
:103af000de0190001e0078009e00900030f4070068
:103b00000000e00001003c000044eb000804e0007d
:103b1000040032004e019000de019000028fbe00d2
:103b20000e00370018c0b3002e019000be019000b7
:103b30001e0078009e0090001ff407000000e000c7
:103b4000010035000044eb000804e00003003200ef
:103b50002e019000be019000028fbe001e00780072
:103b60009e0090004f0478000080fa0000000600dc
:103b70000400fa00008fbe00b2fd20009304240070
:103b80001e0078009e009000c9f30700020020008c
:103b900043332400f1f407000080fa00000006001f
:103ba0000400fa00008fbe00b2fd20009304240040
:103bb0001e0078009e009000e8f40700020020003c
:103bc00043332400baf307000080fa000000060027
:103bd0000600fa0010079800210798000040eb004b
:103be000004f780055000700ae009000810f500094
:103bf000110034000040eb00004f78000600370051
:103c00001e80fb009e009000008040001040780065
:103c10000b0007001e4fe8009e80fb002e00900066
:103c2000808f5000f6ff3500300007000004e000f0
:103c300001003a00240007000080fa00000006009e
:103c40000200fa00004f780040858000010c21003e
:103c5000008040001e48780041858000f03f200031
:103c6000808f500002003400a830ef0003003700be
:103c7000408580000000e800408588000080fa0050
:103c8000000006000200fa0050858000010c2100af
:103c900000804000104f780051858000f03f2000e8
:103ca000808f500002003400aa30ef00030037007c
:103cb000508580000000e800508588001e40780094
:103cc0000080fa00000006000200fa0010c0b300f5
:103cd000acf0b700ebff0700004f78001e80fb0040
:103ce000201188000080fa00000006000000fa00a1
:103cf000acd0bf000080fa00000006000000fa000f
:103d00004185800050858000808f50000400350080
:103d100041858000508580000080500005003700fc
:103d20004185800050858000808050000040200048
:103d3000008040000080fa00000006000000fa0049
:103d4000eeff070001402000008050000080fa00d4
:103d5000000006000000fa0021e3a9002143a800aa
:103d600001198000f0cf2f0000806000001988004a
:103d70002043a90001198000000e200001007000fe
:103d80000019880011198000f0ff210000806000f8
:103d9000101988002343a80011198000f0cf2f00cc
:103da00000806000101988001119800030f82f0081
:103db000008060000040a000101988002203a900c4
:103dc0002223a90025e3a900f0c0b30024e3b70033
:103dd00021198000f00f2e008080600000f020008c
:103de00001007000201988003303a9004feea800dd
:103df0002e0ea8002f6ea8006f2ea8001e2ea80061
:103e000031e3a80030c3a8003163a8002e03a80046
:103e10003063a8004119800000fc2f000080600082
:103e20004019880028e3a90001a8a90021a8a8003a
:103e300021e3a8000080fa00000006000000fa005c
:103e40002023a8000080fa00000006000000fa000d
:103e5000607821000080fa00000006000000fa00ef
:103e6000bbd0bf000080fa00000006000000fa008e
:103e7000bb70ef000080fa00000006000200fa00ac
:103e8000004f78002c0007000000e0000d00340017
:103e9000b085800061682100008040001e487800e5
:103ea000b1858000e0072000808f500002003400c0
:103eb000b630ef0003003700b08580000000e80056
:103ec000b08588000080fa00000006000200fa00b9
:103ed000c08580006168210000804000104f78009c
:103ee000c1858000e0072000808f50000200340070
:103ef000b830ef0003003700c08580000000e80004
:103f0000c08588001e4078000080fa00000006008e
:103f10000000fa00b1858000c0858000808f5000cd
:103f20000200320010c0b300010037000040eb0077
:103f30000080fa00000006000000fa00b185800051
:103f4000c0858000808f500005003500c18580004d
:103f5000b0858000008050000008b00004003700e9
:103f6000b1858000c0858000008050000008b0004e
:103f70000080fa00000006000000fa00eeff0700d3
:103f800001082000008050000080fa0000000600b8
:103f90000000fa002002a9000111800090ff2f000c
:103fa000008060000011880020a2a9002062a80003
:103fb000500520004011880023a2a90023e2a90097
:103fc0000188a9002188a80011118000f0f32f00ba
:103fd00000806000101188000168a9002168a80015
:103fe00021428000f0ff2800808060000000250052
:103ff00001007000204288003142800080ff2f00c5
:10400000008060000020a0003042880021e2a8006b
:104010002342a8000080fa00000006000600fa0013
:1040200010079800210798000040eb00004f78002f
:104030000040eb00004f78000e0037000000000049
:104040001111800000202000008060000000e000ce
:10405000fbff3a001e009000104078000080fb003b
:10406000201188001e0090000000e8001007980052
:104070001e4fe8009e80fb002e009000808f5000b5
:0c408000eeff35000080fa000000060092
:020000040000fa
:10408c00941000000a00000080000000ae10000038
:10409c0004000000820000001e000100000000006f
:1040ac009e1000000a00000080000000c0140000f8
:1040bc00e600000080000000b210000004000000c8
:1040cc008200000000007000410000008617000014
:1040dc000a00000080000000ba100000020000007e
:1040ec0080000000bc1000000200000080000000f6
:1040fc00c01000000004000080000000a8100000a8
:10410c000600000080000000861600008000000001
:10411c0080000000b61000000400000080000000c9
:10412c0006170000800000008000000088100000ce
:10413c000c0000008000000068100000200000004f
:10414c0080000000a6150000e000000080000000c8
:10415c00001000006800000080000000be1000008d
:0c416c00020000008000000000000000c5
:020000040000fa
:104178000000fa000e2eef001e2eef002e2eef008c
:104188003e2eef004e2eef005e2eef006e2eef005b
:10419800214ea90060cea90060eea90011cea900a9
:1041a80011eea90020cea90020eea900002ea8003b
:1041b8002136800000f82f00008060008001b300e5
:1041c800203688001134800000fc2f000080600039
:1041d8000000a000103488000136800000f82f008d
:1041e8008080600010062000010070000036880002
:1041f80001368000f00f2800808060000000260053
:104208000100700000368800e135800000f82f00ba
:10421800808060006004200001007000e0358800a4
:10422800e1358000f00f28008080600000502400f5
:1042380001007000e03588000080fa0000000600e8
:104248000000fa00f0032000303a8800213a80008c
:10425800f0f32f0000806000203a8800213a8000a7
:1042680000fe2f00008060000000a000203a8800b7
:104278001200200080072000a109200033742000cc
:10428800804978008149780082497800103a800096
:10429800000178000200a0006004200071052000e1
:1042a8002374200080497800814978008249780089
:1042b80000000000113a80000000270080806000a4
:1042c80000002100808f5000faff3a000000000033
:1042d800113a800000022000008060000000e00029
:0c42e800fbff32000080fa00000006001e
:020000040000fa
:02000004000af0
:04afe000cfff00009f
:020000040000fa
:02000004000af0
:04afe400ffff00006b
:020000040000fa
:02000004000af0
:04afe8007fff0000e7
:020000040000fa
:02000004000af0
:04afec005fff000003
:020000040000fa
:02000004000af0
:04aff00038ff000026
:020000040000fa
:02000004000af0
:04aff400ffff00005b
:00000001FF
