:020000040000fa
:080000000002040000000000f2
:020000040000fa
:04000800920400005e
:020000040000fa
:04000c00920400005a
:020000040000fa
:040010009204000056
:020000040000fa
:040014009204000052
:020000040000fa
:04001800920400004e
:020000040000fa
:04001c00920400004a
:020000040000fa
:040020009204000046
:020000040000fa
:040024009204000042
:020000040000fa
:04002800920400003e
:020000040000fa
:04002c00920400003a
:020000040000fa
:040030009204000036
:020000040000fa
:0400340002030000c3
:020000040000fa
:04003800920400002e
:020000040000fa
:04003c00920400002a
:020000040000fa
:040040009204000026
:020000040000fa
:040044009204000022
:020000040000fa
:04004800fa020000b8
:020000040000fa
:04004c00920400001a
:020000040000fa
:040050009204000016
:020000040000fa
:040054004e04000056
:020000040000fa
:04005800240400007c
:020000040000fa
:04005c00000400009c
:020000040000fa
:040060009204000006
:020000040000fa
:040064009204000002
:020000040000fa
:0400680092040000fe
:020000040000fa
:04006c0092040000fa
:020000040000fa
:0400700092040000f6
:020000040000fa
:0400740092040000f2
:020000040000fa
:0400780092040000ee
:020000040000fa
:04007c0092040000ea
:020000040000fa
:0400800092040000e6
:020000040000fa
:0400840092040000e2
:020000040000fa
:0400880092040000de
:020000040000fa
:04008c0092040000da
:020000040000fa
:0400900092040000d6
:020000040000fa
:04009400d60300008f
:020000040000fa
:0400980092040000ce
:020000040000fa
:04009c0092040000ca
:020000040000fa
:0400a00092040000c6
:020000040000fa
:0400a40092040000c2
:020000040000fa
:0400a80092040000be
:020000040000fa
:0400ac0092040000ba
:020000040000fa
:0400b00092040000b6
:020000040000fa
:0400b40092040000b2
:020000040000fa
:0400b80092040000ae
:020000040000fa
:0400bc0092040000aa
:020000040000fa
:0400c00092040000a6
:020000040000fa
:0400c40092040000a2
:020000040000fa
:0400c800920400009e
:020000040000fa
:0400cc00920400009a
:020000040000fa
:0400d0009204000096
:020000040000fa
:0400d4009204000092
:020000040000fa
:0400d800920400008e
:020000040000fa
:0400dc00920400008a
:020000040000fa
:0400e0009204000086
:020000040000fa
:0400e4009204000082
:020000040000fa
:0400e800920400007e
:020000040000fa
:0400ec00920400007a
:020000040000fa
:0400f0009204000076
:020000040000fa
:0400f4009204000072
:020000040000fa
:0400f800920400006e
:020000040000fa
:0400fc00920400006a
:020000040000fa
:040100009204000065
:020000040000fa
:040104009204000061
:020000040000fa
:04010800920400005d
:020000040000fa
:04010c009204000059
:020000040000fa
:040110009204000055
:020000040000fa
:040114009204000051
:020000040000fa
:04011800920400004d
:020000040000fa
:04011c009204000049
:020000040000fa
:040120009204000045
:020000040000fa
:040124009204000041
:020000040000fa
:04012800920400003d
:020000040000fa
:04012c009204000039
:020000040000fa
:040130009204000035
:020000040000fa
:040134009204000031
:020000040000fa
:04013800920400002d
:020000040000fa
:04013c009204000029
:020000040000fa
:040140009204000025
:020000040000fa
:040144009204000021
:020000040000fa
:04014800920400001d
:020000040000fa
:04014c009204000019
:020000040000fa
:040150009204000015
:020000040000fa
:040154009204000011
:020000040000fa
:04015800920400000d
:020000040000fa
:04015c009204000009
:020000040000fa
:040160009204000005
:020000040000fa
:040164009204000001
:020000040000fa
:0401680092040000fd
:020000040000fa
:04016c0092040000f9
:020000040000fa
:0401700092040000f5
:020000040000fa
:0401740092040000f1
:020000040000fa
:0401780092040000ed
:020000040000fa
:04017c0092040000e9
:020000040000fa
:0401800092040000e5
:020000040000fa
:0401840092040000e1
:020000040000fa
:0401880092040000dd
:020000040000fa
:04018c0092040000d9
:020000040000fa
:0401900092040000d5
:020000040000fa
:0401940092040000d1
:020000040000fa
:0401980092040000cd
:020000040000fa
:04019c0092040000c9
:020000040000fa
:0401a00092040000c5
:020000040000fa
:0401a40092040000c1
:020000040000fa
:0401a80092040000bd
:020000040000fa
:0401ac0092040000b9
:020000040000fa
:0401b00092040000b5
:020000040000fa
:0401b40092040000b1
:020000040000fa
:0401b80092040000ad
:020000040000fa
:0401bc0092040000a9
:020000040000fa
:0401c00092040000a5
:020000040000fa
:0401c40092040000a1
:020000040000fa
:0401c800920400009d
:020000040000fa
:0401cc009204000099
:020000040000fa
:0401d0009204000095
:020000040000fa
:0401d4009204000091
:020000040000fa
:0401d800920400008d
:020000040000fa
:0401dc009204000089
:020000040000fa
:0401e0009204000085
:020000040000fa
:0401e4009204000081
:020000040000fa
:0401e800920400007d
:020000040000fa
:0401ec009204000079
:020000040000fa
:0401f0009204000075
:020000040000fa
:0401f4009204000071
:020000040000fa
:0401f800920400006d
:020000040000fa
:0401fc009204000069
:020000040000fa
:040200009204000064
:020000040000fa
:040204009204000060
:020000040000fa
:04020800920400005c
:020000040000fa
:04020c009204000058
:020000040000fa
:040210009204000054
:020000040000fa
:040214009204000050
:020000040000fa
:04021800920400004c
:020000040000fa
:04021c009204000048
:020000040000fa
:040220009204000044
:020000040000fa
:040224009204000040
:020000040000fa
:04022800920400003c
:020000040000fa
:04022c009204000038
:020000040000fa
:040230009204000034
:020000040000fa
:040234009204000030
:020000040000fa
:04023800920400002c
:020000040000fa
:04023c009204000028
:020000040000fa
:040240009204000024
:020000040000fa
:040244009204000020
:020000040000fa
:04024800920400001c
:020000040000fa
:04024c009204000018
:020000040000fa
:040250009204000014
:020000040000fa
:040254009204000010
:020000040000fa
:04025800920400000c
:020000040000fa
:04025c009204000008
:020000040000fa
:040260009204000004
:020000040000fa
:040264009204000000
:020000040000fa
:0402680092040000fc
:020000040000fa
:04026c0092040000f8
:020000040000fa
:0402700092040000f4
:020000040000fa
:0402740092040000f0
:020000040000fa
:0402780092040000ec
:020000040000fa
:04027c0092040000e8
:020000040000fa
:0402800092040000e4
:020000040000fa
:10040000cfb221000eff2c000e018800000000007a
:10041000000020000000e000020032000001200087
:100420002002880014000700400107000000e000df
:1004300003003a0060122200010020000200370091
:100440000000200001002000810f70000100320038
:100450000f000700000020000000e0000200320052
:100460000000020000000000a009020000000000df
:100470000040da000000fe00200020000000e00044
:1004800002003200100020009001880000000600e9
:10049000a1028800800478000000eb001f003700f4
:1004a000e284440054a0b4009905ba00e2844400f8
:1004b00054a0b4009906ba00e284440054a0b400e9
:1004c0000006eb00476fde00fd07b200ae018800ba
:1004d000636ce10003003a000ad801000000eb0061
:1004e0000e003700606ce10008003a00004deb00a0
:1004f0000a05e800020039003420ec000af0a000f0
:100500008b05e900f9ff3e00040037006168e10057
:10051000010032000086eb000b00070019c7ba008b
:100520000e04e0001905ba0003003a000a00e000da
:10053000dbff3a0000000600fe07b200ae028800b2
:100540008a047800f5ff37000cd0a300e20f4d00bd
:100550001c00390089027800354dba000a05e80010
:10056000020039003420ec000af0a0008b05e900fd
:100570000f003200254dba000a05e80002003900dc
:100580003420ec000af0a0008b05e90008003200de
:100590000c00e0000600320015cdba000a05e800a4
:1005a000020039003420ec000af0a0008b05e900bd
:1005b0008984e80054a0b4000b00e000e2ff3a0098
:1005c000000006009902ba00055d78008b05e9007d
:1005d000f7ff3200c82ade00055d78008b05e900d0
:1005e000f3ff32000c00e000f1ff320019ddba0029
:1005f000eeff37000000fa000108a9000080fa00b1
:10060000004006003600f800809fbe00829fbe00ba
:10061000849fbe00869fbe00889fbe000e00fa0029
:100620000068a900770e0700a60c0700f08580007f
:1006300060079800a10020006e0090008101780002
:10064000110009000300d80001f0a7008100ea00b2
:100650008100e900cf08de00814078006e01900043
:100660000200e800f08588000104e0004700320045
:1006700031618000d0cc2c000008b8004508de00b5
:100680000041780031668000d0cc2c000008b80012
:100690004508de0000407800024f780010479800bf
:1006a000207180004a00de006140600011c0b3008c
:1006b0002147980030479800207380004700de00f3
:1006c0006140600021c0b300414798005047980046
:1006d000207380004600de006140600031c0b3003e
:1006e00061479800704798000e01780021002000b3
:1006f00000042000f90507000e80e80000017800e2
:100700002100200000022000f405070064004700db
:10071000000178002100200000022000ef05070002
:100720006600470000017800210020000002200040
:10073000ea05070070c7800081c7800043010700f9
:1007400080447800b0c78000c1c780003f01070027
:1007500000447800d0c78000e1c780003b0107005b
:1007600000407800094f9800184f9800204f9800db
:1007700068004700000178003100200000032000dd
:10078000d605070024080700890907000080fa0041
:100790004f04be004f03be004f02be004f01be001b
:1007a0004f00be003600f900004006003600f80099
:1007b000809fbe00829fbe00849fbe00869fbe00b9
:1007c0000000fa000368a900d0858000e185800060
:1007d00061004000e0804800d0858800e185880005
:1007e000920307000080fa004f03be004f02be00d4
:1007f0004f01be004f00be003600f9000040060069
:10080000801f78000000fa0001a8a90000188000ed
:1008100010d988001018800020d988002018800086
:1008200030d988003018800040d9880040188000f6
:1008300050d9880010c0b300d7f0b7000080fa008c
:100840004f007800004006003600f800809fbe0090
:10085000829fbe00849fbe00869fbe000000fa00fb
:100860000188a9003186800020868000808f50009a
:1008700002003200860d070001003700c870ef004b
:100880000080fa004f03be004f02be004f01be00c1
:100890004f00be003600f900004006003600f800a8
:1008a000809fbe00829fbe00849fbe00869fbe00c8
:1008b0000000fa000168a9001011800064006000c7
:1008c0000000e000010032002242a9001011800067
:1008d000620060000000e000060032002222a90051
:1008e000050037003011800000407800d50d07006a
:1008f000010037000000000010118000610060005e
:100900000000e000f7ff3a000080fa004f03be004d
:100910004f02be004f01be004f00be003600f9007e
:10092000004006000040da000000fe000000050064
:1009300003f0a200889fbe008a9fbe008c1f780033
:100940006e010700750133006450e1004f00320072
:100950006420e1005200320003826c0007003b007b
:100960000905d0000306d000820f54000c065d007c
:100970000200390002003200890178000306780085
:100980008582550004003d000003fd008103fd0049
:100990008502ea008b854200840f720002003b0052
:1009a00060001000e08018006011b8000005eb0046
:1009b0007a28e1000a00390006007800c75ddd00f2
:1009c000f707b200878075002d0037008281710023
:1009d0000a017800610560008180d1000080d300a9
:1009e0008502e900f9ff3b000604400087844800c7
:1009f00002003b0060041400e0841c000988a3008e
:100a0000070032008a8171008281710061016400f7
:100a10008904d1000884d3008b05e8001700370053
:100a20000978a30013003a000b00e0001300340023
:100a30008b05e9000804440089844c000a447400d2
:100a40000978a3000d003a000b00e0000700340015
:100a50008b05e9000804440089844c0001003a0039
:100a60000b0020000978a300f7ff32000001eb0023
:100a700002003700828171000a017800e40007005b
:100a80000cf0a70001f0a0002d0137006420e10068
:100a900002003a00838f6c002d0133000801be0074
:100aa0000200be00260137000081eb005f01370025
:100ab000889fbe008a9fbe008c1f78000f01070030
:100ac0001601330003866c006450e1002e003200f2
:100ad0006420e100330032006150e1002f00320059
:100ae0006120e1003100320085855500eb07b00040
:100af0000900200008042000050037000804440015
:100b000089844c000a0031000603430087834b00b0
:100b10000001530081815b00f8ff33000203be0037
:100b20000800a0000804440089844c00f6ff390046
:100b3000c639dd008301730001003200130020007c
:100b40008904d1000884d3000998a300050032006d
:100b50000800a7000300a0008904d1000884d30086
:100b60008b05e8008904d1000884d3000001eb0064
:100b70000281d200a600070001f0a1000cf0a7003e
:100b800001f0a000ee0037006420e100f000320028
:100b90000801be000200be00f7ff37006120e1003f
:100ba000eb0032006000b800f3ff370000002000c7
:100bb00001f82700f0ff37001400200086013700fd
:100bc000f4ff2f00840137000001be00b6000700cb
:100bd0000470a70003f0a1006509b10016003200ff
:100be0000d0035006828e10006003500f0ff2f00f9
:100bf000f1ff27000300e00013003b000100280084
:100c00000000050000004000818048008502e900e6
:100c1000fcff3a0008003700f88f420002003c0059
:100c20008000eb00000005008100d1000080d300af
:100c30008502e800fcff3a000300e00002003b00f0
:100c400060001000e0801800000006000001be00f7
:100c5000950007000470a70003f0a10003f8a300ab
:100c600013003a006509b100100032000900350098
:100c70006928e1000200350001002800000005009d
:100c800000004000818048008502e900fcff3a0036
:100c900000000600f88f4200050035008100d100f9
:100ca0000080d3008502e800fcff3a000000060047
:100cb0008000eb00000005004f89de008201780013
:100cc000600137006011b8006e0137000400200099
:100cd00000003700889fbe008a9fbe008c1f7800ee
:100ce0004f26dd00850007008c0033006120e10005
:100cf000430032006250e10041003e003e003900f6
:100d00006420e1003c003200058255000f003b00ea
:100d10000402e80038003a00800f5300818f5b0026
:100d2000350034000800be0003f0a10001f0a60069
:100d300003f0a0000cf0a700fefe070080003700c3
:100d40000603430087834b000c4646000005530012
:100d500081855b00020033000a03be000c00a00086
:100d60000402e900f6ff3b00850578000602430017
:100d700087824b0004003a006000b80009f0a70029
:100d800001f0a0006e0037000002520081825a007c
:100d90000704e000040033000603430087834b0090
:100da0008b05e900faff3700090578000604be004c
:100db0000203be006011b80015000700e00f5200ea
:100dc000e08f5a000700350002003c000c08a30029
:100dd000040032000601be0003f0a0000cf0a700e2
:100de000d4fe07000a85680001f0a1000af0a70000
:100df00001f0a000520037000800be00500037008c
:100e0000100220000cf0a600d086880050003700a9
:100e100081002000618055000b003d000b00200088
:100e200061fe2f000100e1001d003400828171008d
:100e3000610164008904d1000884d3000000e80047
:100e4000faff3a00710020006100640003007000a6
:100e5000020060000900320061044400e0844c009c
:100e60000988a500050032008b05e8006808e1004c
:100e700002003a008904d1000884d300f20f200058
:100e80000258e10005003d00c75ddd00f907b20032
:100e90008980750008007800000006000bf8270024
:100ea0008b00780000000500c70ade00f107b200e1
:100eb000f50fb20008003200e1cf4200020032001c
:100ec0000170a00024000500810f700001003200b5
:100ed0000408050044000500810f700002003a007c
:100ee000140005008502e9000000400081c04800b0
:100ef000fcff3b000170a000240005000004be00c0
:100f0000e9ff07000003be000405be000200be00aa
:100f1000e5ff0700844f7500000006000200be00d8
:100f20006450e100050036006420e1000200360054
:100f30000968a30001003a000800be000160a0009b
:100f40004f0678004f05be004f04be0000000600ab
:100f5000f0ff2f00f1ff2700f9ff3700889fbe0048
:100f60008a9fbe008c1f7800e4ff0700ebff330070
:100f700003866c006450e100240032006420e1002c
:100f8000270032006150e100220032006120e100c0
:100f9000210032008b854200eb07b1000134b8001c
:100fa000003ab8000804420089844a00013ab800b7
:100fb0000030b8008880400009014a000400330076
:100fc0000000400081804800020149008b05e900d3
:100fd000c909dd0083017000010032001300200008
:100fe000c814de004814dd004709de001200b2001c
:100ff000c808de000884700085ff070001f0a1002a
:101000000cf0a70001f0a000cdff37006120e10047
:10101000cfff32000801be000200be00f7ff37001c
:101020006150e100fcff3a00c9ff3700889fbe0015
:101030008a9fbe008c9fbe00820578000004be001f
:1010400099ff07000800be006420e1000700390096
:1010500002003a00f1ff2700f0ff2f000160a0001e
:1010600012022000d2868800550037006120e1007e
:1010700003003a000b00a70001f8230050003700de
:1010800001f0a1000200210093642400cafe0700c1
:101090000800be0004003500b2fd2000930c2400bf
:1010a0000aff07000004be000005eb000b00a600cd
:1010b0004f0dde0001f0a1000004be0032982f00a9
:1010c00023ea2300a5ff07000001eb0003f0230043
:1010d0000b00a70003f8230016fe0700bafe070066
:1010e0000000a7000a00a200f3fe07000b00e000ca
:1010f000030032000200200003f023000cfe070072
:1011000001f0a2000006be000200200093042400ab
:1011100092ff07000801be0006fe0700809fbe0088
:101120000c00be0022a22a00d3a723008bff0700d9
:101130004f01be00fffd07000004be0001f0a1004a
:1011400002002000039823009bfe07000800be0059
:10115000190035000001be0080ff07000006be0038
:10116000b2c52900e36223007cff070022222b0086
:10117000f3942b00effd07000c01be0077ff070082
:10118000e273280083c02300eafd07000c01be00c3
:1011900072ff070042aa2a00a3e22b00e5fd070028
:1011a0000c01be006dff07000801be006bff0700c9
:1011b0000801be00dffd07000a00a70001f0a20041
:1011c0004f06be004f05be004f04be0000000600e3
:1011d0000001eb0095ff3700889fbe008a9fbe008c
:1011e000841f780045ff07004f007800110033008e
:1011f000f0ff2f00838f6c0006003b0004056500a4
:101200000a00a7000800370009f0a600100020001f
:1012100008003700820f5400838f5c000300390000
:101220001000200001003e000000200009f0a7008f
:101230000000ea004f05be004f04be000000e000c1
:1012400000000600881f7800030478000300e00017
:1012500007003d0060001000e080180060011900e8
:10126000e081190002003b0001f02d00030037006f
:101270000400070008f0a70001f0a0004f04780068
:1012800000000600889fbe008a9fbe00008270009a
:101290000402710004827100260032000004be00c6
:1012a0000200be006011b8006b092000950220000a
:1012b0000182cf000a0039000541b1000082cf0051
:1012c000070039000541b1000982cf000400390050
:1012d0000541b1000882cf00010039000541b1008d
:1012e00005425200120032000a003b008281710068
:1012f000610164008100d1000080d3008984d300a3
:101300000884d3008b05e8000442e800f7ff3a00a8
:10131000070037000804440089844c00000048009e
:10132000818048008b05e9000442e900f9ff3a009a
:10133000b7fe07004f05be004f04be0000000600c8
:020000040000fa
:101340000600fa00300c0700fb0b070041090700fc
:10135000f20a0700740507005a050700ed050700ab
:101360007b0b070031040700390407002d0b070031
:10137000e14f500083003a002e0b0700250b0700b9
:10138000000f78001e007800100078008000eb004d
:101390004cfe07003233230033052400effe070024
:1013a0000200200003582400c1fd0700d2cc2c000d
:1013b000c3042400e9fe07001007980021079800e5
:1013c0001e019000ae01900000002000812024004a
:1013d000b7fd070002002000030a240054fd0700a7
:1013e00090c78800a1c788001e80e8001000780020
:1013f0008000eb0033fe0700323323003305240066
:10140000d6fe07000200200003582400a8fd0700b4
:10141000d2cc2c00c3042400d0fe07001007980093
:10142000210798001e019000ae01900000002000ee
:10143000812024009efd070002002000030a2400f2
:101440003bfd070070c7880081c788009e007800b8
:1014500064804000100078008000eb0019fe070057
:101460003233230033052400bcfe070002002000b5
:10147000035824008efd0700d2cc2c00c3042400a6
:10148000b6fe070010079800210798001e01900083
:10149000ae019000000020008120240084fd0700a0
:1014a00002002000030a240021fd0700b0c78800c5
:1014b000c1c788009e007800688040001000780056
:1014c0008000eb00fffd07003233230033052400ca
:1014d000a2fe0700020020000358240074fd07004c
:1014e000d2cc2c00c30424009cfe070010079800f7
:1014f000210798001e019000ae019000000020001e
:10150000812024006afd070002002000030a240055
:1015100007fd0700d0c78800e1c788009e0078005b
:1015200066804000100078008000eb00e5fd0700b9
:10153000323323003305240088fe07000200200018
:10154000035824005afd0700d2cc2c00c304240009
:1015500082fe070010079800210798001e019000e6
:10156000ae019000000020008120240050fd070003
:1015700002002000030a2400edfc0700f0c78800e9
:1015800001c88800b430ef0007003700bf0a070029
:10159000b6f0b700b6d0bf00a9020700a085800052
:1015a0000000e800a0858800e30a070080007800ba
:1015b000a0858000808f5000f4ff3e00ad0307003f
:1015c0006aff37000200fa00004f78001e417800e1
:1015d000710b2100824878000080fa0000000600ac
:1015e0000200fa00004f78001e4078000004e0007e
:1015f00006003a00cc70ef00c0c0b300b7f0b700ef
:1016000064eea800254ea800060037001e407800b2
:10161000e14f500003003a0010c0b300ccf0b70017
:10162000b770ef000080fa00000006000000fa002a
:1016300080858000e10f500006003a00f000200095
:101640005086880064cea90064eea900254ea9004a
:101650001100370080858000e20f500006003a003c
:10166000400120005086880064cea90064eea900e5
:10167000254ea9000800370080858000e30f500048
:1016800005003a00e00120005086880064cea900e1
:1016900064eea900254ea900b7d0bf000080fb0072
:1016a000cf80de007201200003002000820f500076
:1016b000838f5800ba003e00000601001700370073
:1016c0002000370032003700410037006900370042
:1016d00072003700730037007c0037007d00370050
:1016e0008700370088003700920037001f0037005e
:1016f000ae003700380037004200370043003700a3
:101700004d0037004e003700580037008b0037007f
:1017100095003700960037009f003700ba30ef0081
:10172000bc30ef000001eb006000b80006090700c4
:10173000120020006000b8000309070010c0b300c9
:10174000b7f0b700d2858000e3858000803e20009e
:1017500001002000800f5100818f59009500360054
:1017600020c0b300b7f0b700930037000001eb00d2
:101770006000b800f4080700120020006000b80004
:10178000f1080700d0c0b300b7f0b7008a003700f7
:10179000908580000000e8009085880050868000d9
:1017a0008000eb0047fd07000001eb00e6080700a2
:1017b000508680008000eb0042fd070012002000f0
:1017c000e108070030c0b300b7f0b7007a00370077
:1017d0007b000700780037000001eb0000002000cc
:1017e00001172c00d808070012002000000020007c
:1017f00001172c00d4080700f0c0b300b7f0b70001
:101800006d0037006e0007006b0037000001eb0031
:101810000000200001172400cb0807001200200060
:101820000000200001102400c708070010c1b30009
:10183000b7f0b70060003700610007005e003700b6
:101840000001eb000000200001102400be0807008a
:10185000120020000000200001172400ba08070031
:1018600030c1b300b7f0b700530037005400070091
:10187000510037000001eb00000020000117240098
:10188000b1080700120020006000b800ae08070091
:1018900050c0b300b7f0b70047003700480007005a
:1018a000450037000001eb006000b800a608070003
:1018b000120020000000200001172400a2080700e9
:1018c00070c0b300b7f0b7003b0037003c00070022
:1018d000390037000001eb0000002000011a24004d
:1018e000990807001200200000002000011a2c00b7
:1018f0009508070090c0b300b7f0b7002e0037007e
:101900002f0007002c0037000001eb000000200032
:10191000011a2c008c080700120020000000200093
:10192000011a240088080700b0c0b300b7f0b70060
:1019300021003700220007001f0037000001eb00e4
:1019400000002000011024007f0807001200200082
:101950006000b8007c0807001201070050c1b30006
:10196000b7f0b70014003700150007001200370069
:101970000001eb006000b8007308070012002000af
:1019800000002000011024006f08070070c1b300a0
:10199000b7f0b7000800370009000700060037005d
:1019a000b770ef00000000000300370000000000e7
:1019b00001003700000000000080fa00000006006f
:1019c0000200fa00881f7800ccd0bf00e14f500021
:1019d000f1003a000040eb00004f7800f0c78000b3
:1019e00001c8800018c0b30002002000031a2400c0
:1019f00071fc07000000e000010035000044eb002e
:101a00000804e0002c003a00d0c78000e1c7800045
:101a100018c0b30002002000031f240066fc07006a
:101a20000000e000010035000044eb000804e00085
:101a300021003a00b0c78000c1c7800018c0b300c1
:101a400002002000c32024005bfc07000000e0002f
:101a5000010035000044eb000804e00016003a00e5
:101a600070c7800081c7800018c0b300020020004a
:101a7000031f240050fc07000000e00001003500b7
:101a80000044eb000804e0000b003a0090c780001f
:101a9000a1c7800018c0b30002002000031a240070
:101aa00045fc07000000e000010035000044eb00a9
:101ab0000804e00005003200100020008085880046
:101ac00084060700004f780073003700f0c78000dd
:101ad00001c8800018c0b3000200200003222400c7
:101ae00035fc07000000e000010035000044eb0079
:101af0000804e0002c003a00d0c78000e1c7800055
:101b000018c0b30002002000832424002afc070030
:101b10000000e000010035000044eb000804e00094
:101b200021003a00b0c78000c1c7800018c0b300d0
:101b300002002000032724001ffc07000000e00033
:101b4000010035000044eb000804e00016003a00f4
:101b500070c7800081c7800018c0b3000200200059
:101b60008324240014fc07000000e000010035007d
:101b70000044eb000804e0000b003a0090c780002e
:101b8000a1c7800018c0b300020020000322240077
:101b900009fc07000000e000010035000044eb00f4
:101ba0000804e00003003200200020008085880047
:101bb00039003700f0c7800001c8800018c0b300aa
:101bc0000200200003222400fdfb07000000e000cb
:101bd00001003d000044eb000804e0002c003a0046
:101be000d0c78000e1c7800018c0b3000200200009
:101bf00083242400f2fb07000000e00001003d0008
:101c00000044eb000804e00021003a00b0c7800067
:101c1000c1c7800018c0b3000200200003272400c1
:101c2000e7fb07000000e00001003d000044eb007e
:101c30000804e00016003a0070c7800081c78000e9
:101c400018c0b3000200200083242400dcfb07003e
:101c50000000e00001003d000044eb000804e0004b
:101c60000b003a0090c78000a1c7800018c0b300e5
:101c70000200200003222400d1fb07000000e00046
:101c800001003d000044eb000804e00002003200c7
:101c900030002000808588001e4078000004e000ad
:101ca00003003a0020c0b300b8f0b700300037009e
:101cb0001e407800e34f500003003a0000c1b3001b
:101cc000b8f0b7002a0037001e407800e14f5000fe
:101cd00003003a0020c1b300b8f0b7002400370079
:101ce0001e407800e44f500003003a0040c0b300ab
:101cf000b8f0b7001e0037001e407800e24f5000d9
:101d000003003a0060c0b300b8f0b7001800370015
:101d10001e407800e54f50000a003a009085800090
:101d2000610060000000e00003003a0080c0b300e2
:101d3000b8f0b7000e003700a0c0b300b8f0b7008d
:101d40000b0037001e407800e64f500003003a00b9
:101d500040c1b300b8f0b700050037001e4078005e
:101d6000e74f500002003a0060c1b300b8f0b7007e
:101d7000b8d0bf008080fb00b7d0bf000080fb0060
:101d80000000e900808f500003003200b8d0bf008f
:101d9000b7f0b700030007004f0478000080fa0096
:101da000000006000600fa00750b2100954278003d
:101db000d0858000e18580004808de000042780080
:101dc000d0858000e18580004008de0080417800f9
:101dd000d0858000e18580004809dd004800de00f4
:101de00000007100c808de0000417800d085800046
:101df000e185800000407800054f78001447980086
:101e00002347980032479800404798000e01780019
:101e10005100200000052000300007000080fa007b
:101e2000000006000a00fa00200798003107980019
:101e300042079800e0cfb300204798002e009000a2
:101e40004880de00804078002e40900000c068008e
:101e5000204798002e009000804078002e4090008f
:101e600000c06800204798003e0090004880de00d7
:101e7000804078002e40900000c068002047980005
:101e80003e009000804078002e40900000c0680026
:101e9000204798000000eb00000f78000800370092
:101ea0001e007800ce0090000080400010407800b6
:101eb000ae40900000c06800204798001e0fe80068
:101ec0003e0090009e007800808f5000f4ff3500a7
:101ed0002e4090000080fa00000006000e00fa007c
:101ee000889fbe004007980051079800620798003d
:101ef0000f0478000f007800800478000000eb00e9
:101f0000000f78005e009000660040008000e9004d
:101f1000210798000000e8000000e8000000d10060
:101f2000800040000f007800818747000000e80033
:101f30000000d10000004000300798003e009000f3
:101f40001e004000e1cfb300014878001e0fe800fa
:101f50004e0090004880de00804078003e009000f7
:101f60001e004000014878001e0fe8004e0090005f
:101f7000804078003e0090001e004000014878003c
:101f80001e0fe8005e0090004880de008040780070
:101f90003e0090001e004000014878001e0fe8003f
:101fa0005e009000804078003e0090001e004000df
:101fb000014878001e0fe8000000eb0010079800b1
:101fc0000b0037001e009000ee00900000804000e3
:101fd000904078003e0090001e00400001487800cc
:101fe0001e0fe8001e0090000000e8001007980097
:101ff0009e0090005e009000808f5000f1ff350041
:102000006e019000de0090004e00900085ff0700fa
:10201000be0090009e804000804878001e0fe800bf
:102020003e0090009e0078005f0707008907780057
:10203000880778004f04be000080fa000000060008
:102040000400fa002047980090838000e30f5000be
:1020500023003200e30f500005003e00e10f500066
:1020600013003200e10f500015003e00070037005a
:10207000e50f50002d003200e50f50001c00390024
:10208000e60f5000380032004b0037002e40900021
:10209000e24f400002003a001000200090838800c8
:1020a0006830ef006c30ef006a30ef004600370018
:1020b0006830ef0020002000908388004200370045
:1020c0002e4090008080fb00408380000080400014
:1020d0004083880030002000908388003a00370059
:1020e0006a30ef00400020009083880036003700ff
:1020f0002e4090008080fb005083800000804000d4
:1021000050838800508380000000e000040032000b
:102110006c30ef0050002000908388002a003700c8
:1021200060002000908388002700370060838000d3
:1021300021aa210000804000ae40900001487800b4
:10214000608380000000e800608388006183800075
:1021500050838000808f50001a00350060002000fe
:102160009083880018003700ae40900002072100dd
:1021700001497800518380004083800022aa210019
:1021800028ff0700004f780070d0bf009e40780005
:1021900080cf500006003a005083800080407800d5
:1021a000408380000040780022aa21000800070038
:1021b0007230ef00040037007230ef0000000000c2
:1021c00001003700000000000080fa000000060057
:1021d0000400fa00889fbe008a9fbe008c1f780012
:1021e000004f780011479800120798001e80fb00ee
:1021f00021052000810f5000110032002105200030
:10220000810f500004003c0011052000810f500098
:10221000080032008000370021062000810f5000a6
:102220000d00320031062000810f50000d003200f9
:10223000790037001e00900010407800e1fc070094
:102240001e00900010407800e5fc070064eea80036
:10225000254ea80070003700100020007083880011
:102260006d0037008000eb001e0090004204070064
:10227000cf80de0090fa0700a0838800b183880039
:10228000410020001e0090003b040700cf80de00cc
:1022900089fa0700c0838800d1838800810020006c
:1022a0001e00900034040700cf80de0082fa070091
:1022b000e0838800f1838800c10020001e009000a8
:1022c0002d040700cf80de007bfa07000084880021
:1022d00011848800010120001e00900026040700e0
:1022e000cf80de0074fa07002084880031848800e3
:1022f000410120001e0090001f040700cf80de0077
:102300006dfa070040848800518488008101200014
:102310001e00900018040700cf80de0066fa070058
:102320006084880071848800a0838000b18380006d
:102330000200200003f823001ffa07000000e0005d
:1023400017003a006a8480007b8480004884800003
:1023500059848000268480003784800004848000b3
:1023600015848000e2838000f3838000c0838000b6
:10237000d18380002c9c21008a9fbe00889fbe00d4
:10238000869fbe000403be000202be000001be0024
:102390000c0078005e020700ec8757001e00370033
:1023a000a0838000b18380006011b80002fa0700aa
:1023b0000000e00017003a006a8480007b848000ff
:1023c00048848000598480002684800037848000ff
:1023d0000484800015848000e2838000f383800001
:1023e000c0838000d1838000ec9f21008a9fbe00c3
:1023f000889fbe00869fbe000403be000202be008e
:102400000001be000c00780041020700ec87570075
:1024100001003700000000004f0678004f05be00a5
:102420004f04be000080fa00000006000000fa0021
:10243000c301a8000080eb00e00e88000080eb00e4
:10244000f00e8800c1e1a8000080fa00000006003c
:102450000000fa00c305a8000080eb00e02e880011
:102460000080eb00f02e8800c1e5a8000080fa0093
:10247000000006000800fa00889fbe008a9fbe0088
:10248000c0848000d184800080848800918488008a
:10249000e0848000f1848000a0848800b1848800fa
:1024a00070838000e10f500006003a006000b80021
:1024b00080848800918488006000b800a08488002f
:1024c000b1848800300e80008000eb00008fbe00d9
:1024d000500e80008000eb00c000dd0000002000f6
:1024e0001e0f40005e974800302e80008000eb00f9
:1024f0002007980031079800502e80008000eb00e4
:10250000c000dd00000020002e019000be01900000
:10251000020040008380480020079800310798009f
:102520001e0078009e009000e3f90700d25d2b00aa
:1025300043c8230089fa0700c0848800d18488003a
:102540002e009000be009000dbf90700d25d2b004a
:1025500043c82b0081fa0700e0848800f1848800da
:10256000c4848000d58480008084800091848000b1
:102570000001be000400be00edf8070000858800e1
:1025800011858800e4848000f5848000a0848000a8
:10259000b18480000001be000400be00e4f8070022
:1025a000208588003185880004858000158580009d
:1025b00020858000318580000001be000400be003f
:1025c000dbf80700020020009335240038f90700eb
:1025d000408588005185880004858000158580002d
:1025e00020858000318580000001be000400be000f
:1025f000d0f8070002002000030024002cf9070097
:1026000060858800718588000085800011858000c4
:1026100002002000a337240050fa070010c88800e9
:1026200021c88800208580003185800002002000bc
:10263000a337240049fa070030c8880041c8880041
:1026400014c8800025c8800030c8800041c88000c0
:102650000001be000400be00b6f807000200200022
:102660000300240012f9070050c8880061c88800e0
:10267000408580005185800002002000a33724009f
:1026800036fa070070c8880081c88800f0c880004a
:1026900001c9800090c88800a1c8880010c98000c6
:1026a00021c98000b0c88800c1c8880030c9800036
:1026b00041c98000d0c88800e1c8880098c880005f
:1026c000a9c8800050c8800061c8800002002000b6
:1026d000a3372400f6f807000005be00d0c880002c
:1026e000e1c88000f0f807000001be000a00be004b
:1026f0001afa07000001be000800be008df80700ae
:10270000f0c8880001c98800b8c88000c9c8800026
:1027100050c8800061c8800002002000a337240058
:10272000e3f807000005be00d0c88000e1c88000c3
:10273000a7fa07000001be000a00be0007fa070062
:102740000001be000800be007af8070010c988002a
:1027500021c98800d4c88000e5c880004085800079
:10276000518580000001be000400be0071f8070022
:1027700030c9880041c9880030c9800041c9800043
:1027800018c0b300b2fd2000930424000cf9070028
:102790000000e00001003c000044eb000804e00001
:1027a0000700320030c9800041c98000b2fd20001e
:1027b000930c24005ef8070030c9880041c98800e6
:1027c00030c9800041c9800018c0b300b2fd2000ac
:1027d00093042c00f8f807000000e0000100350029
:1027e0000044eb000804e0000700320030c980001c
:1027f00041c98000b2fd2000930c24004df8070071
:1028000030c9880041c988004f05be004f04be0092
:102810000080fa00000006001800fa00d085800051
:10282000e18580000001be008000eb000e00780012
:10283000f5020700f0c8800001c980000001be0059
:10284000410020000e007800d602070010c9800069
:1028500021c980000001be00810020000e00780028
:10286000d002070030c9800041c980000001be00cd
:10287000c10020000e007800ca02070050c8800086
:1028800061c880000001be00010120000e00780038
:10289000c402070070c8800081c880000001be002b
:1028a000410120000e007800be0207000e017800f2
:1028b000810120001006200088fd07000080fa003a
:1028c000000006000000fa0013e1a90011e1a900d0
:1028d0001061a8001021a90081088000f0fc2f00e1
:1028e00000806000800888000a21ef000621ef00c8
:1028f000404c20007008880000402b0060088800d1
:102900002142800080ff2f00008060000000a000b6
:10291000204288000108a9002108a80011e1a800b0
:102920000080fa00000006000000fa0005e1a9009e
:102930000421a90000002000a137240005000700a1
:102940000068a9002068a80005e1a8000080fa003e
:10295000000006000400fa00881f7800008fbe0007
:102960001e0178009e0190000068290081c12400aa
:102970004ff8070018c0b30002f02f00f3772400cf
:102980008ff807000000e00001003c000044eb006d
:102990000804e0005400320021088000f0fc2f0001
:1029a000008060000040a000200888001e01780020
:1029b0009e0190000068290081c124003cf80700b6
:1029c000020020000310240039f8070018c0b300eb
:1029d00002f02f00f377240079f807000000e000f0
:1029e00001003c000044eb000804e000320032002b
:1029f00021088000f0fc2f00008060000050a00043
:102a0000200888001e0178009e01900000682900bf
:102a100081c1240026f807000200200003282400ba
:102a200023f8070018c0b30002f02f00f37724004a
:102a300063f807000000e00001003c000044eb00e8
:102a40000804e0001000320021088000000320008c
:102a500001007000200888001e0178009e0190008f
:102a60000068290081c1240011f80700020020003d
:102a7000033824000ef8070053f807000000780020
:102a800010088800200037001e0178009e01900089
:102a90000068290081c1240005f807000200200019
:102aa0000328240002f8070047f807000000780018
:102ab00010088800140037001e0178009e01900065
:102ac0000068290081c12400f9f7070002002000f6
:102ad00003102400f6f707003bf807000000780019
:102ae00010088800080037001e0178009e01900041
:102af0000068290081c12400edf7070032f80700c3
:102b000000007800100888004f0478000080fa0068
:102b1000000006000000fa001fe1a90000002000ec
:102b2000a1472400060007001e21a9000368a90090
:102b30002368a8001fe1a8000080fa00000006003a
:102b40000400fa00881f7800008fbe00f1088000a2
:102b5000f0fc2f0000806000f00888001e01780063
:102b60009e0190000068290081c12400d0f7070071
:102b700018c0b30002f02f00f377240010f807000c
:102b80000000e00001003c000044eb000804e0000d
:102b900054003200f1088000f0fc2f00008060003b
:102ba0000040a000f00888001e0178009e019000ff
:102bb0000068290081c12400bdf707000200200041
:102bc00003102400baf7070018c0b30002f02f006a
:102bd000f3772400faf707000000e00001003c0052
:102be0000044eb000804e00032003200f1088000ed
:102bf000f0fc2f00008060000050a000f00888006a
:102c00001e0178009e0190000068290081c1240007
:102c1000a7f707000200200003282400a4f70700fc
:102c200018c0b30002f02f00f3772400e4f7070088
:102c30000000e00001003c000044eb000804e0005c
:102c400010003200f1088000000320000100700035
:102c5000f00888001e0178009e019000006829009d
:102c600081c1240092f707000200200003382400ed
:102c70008ff70700d4f7070000007800d00888001d
:102c8000200037001e0178009e0190000068290096
:102c900081c1240086f707000200200003282400d9
:102ca00083f70700c8f7070000007800d008880005
:102cb000140037001e0178009e0190000068290072
:102cc00081c124007af707000200200003102400cd
:102cd00077f70700bcf7070000007800d0088800ed
:102ce000080037001e0178009e019000006829004e
:102cf00081c124006ef70700b3f7070000007800d9
:102d0000d00888004f0478000080fa000000060018
:102d10000e00fa00000f78001207980023079800b1
:102d200034079800450798005607980067079800f1
:102d30001e0078001e019000ae019000020898006d
:102d4000130898001e0078003eb99700ceb997008e
:102d500062089800730898001e0078003e019000f9
:102d6000ce01900022089800330898001e007800d9
:102d70001eb99700aeb99700021098001310980082
:102d80001e0078005e019000ee019000420898005d
:102d9000530898001e0078007eb197008eb9970006
:102da00022109800331098000080fa0000000600fe
:102db0000200fa000000eb00000f780000808000a5
:102dc000118080000001be009e007800a0a32100b9
:102dd0007401070020808000318080001e0178008f
:102de000640f41000001be009e007800a0a32100f6
:102df0006c01070050c8800061c880001e01780087
:102e0000640f41000001be009e007800a0a32100d5
:102e10006401070070c8800081c880001e0178002e
:102e2000640f41000001be009e007800a0a32100b5
:102e30005c01070080808000918080001e01780086
:102e4000640f41000001be009e007800a0a3210095
:102e500054010700a0808000b18080001e0178002e
:102e6000640f41000001be009e007800a0a3210075
:102e70004c010700c0808000d18080001e017800d6
:102e8000640f41000001be009e007800a0a3210055
:102e900044010700e0808000f18080001e0178007e
:102ea000640f41000001be009e007800a0a3210035
:102eb0003c01070000818000118180001e01780024
:102ec000640f41000001be009e007800a0a3210015
:102ed0003401070020818000318180001e017800cc
:102ee000640f41000001be009e007800a0a32100f5
:102ef0002c01070040818000518180001e01780074
:102f0000640f41000001be009e007800a0a32100d4
:102f10002401070060818000718180001e0178001b
:102f2000640f41000001be009e007800a0a32100b4
:102f30001c01070080818000918180001e017800c3
:102f4000640f41000001be009e007800a0a3210094
:102f500014010700a0818000b18180001e0178006b
:102f6000640f41000001be009e007800a0a3210074
:102f70000c01070090ce8000a1ce80001e017800d9
:102f8000640f41000001be009e007800a0a3210054
:102f90000401070070d0800081d080001e017800fd
:102fa000640f41000001be009e007800a0a3210034
:102fb000fc000700b0ce8000c1ce80001e0178006a
:102fc000640f41000001be009e007800a0a3210014
:102fd000f400070090d08000a1d080001e0178008e
:102fe000640f41000001be009e007800a0a32100f4
:102ff000ec000700d0ce8000e1ce80001e017800fa
:10300000640f41000001be009e007800a0a32100d3
:10301000e4000700b0d08000c1d080001e0178001d
:10302000640f41000001be009e007800a0a32100b3
:10303000dc000700f0ce800001cf80001e01780088
:10304000640f41000001be009e007800a0a3210093
:10305000d4000700a0828000b18280001e017800a9
:10306000640f41000001be009e007800a0a3210073
:10307000cc000700c0828000d18280001e01780051
:10308000640f41000001be009e007800a0a3210053
:10309000c4000700e0828000f18280001e017800f9
:1030a000640f41000001be009e007800a0a3210033
:1030b000bc00070000838000118380001e0178009f
:1030c000640f41000001be009e007800a0a3210013
:1030d000b400070020838000318380001e01780047
:1030e000640f41000001be009e007800a0a32100f3
:1030f000ac0007009e007800648f4000a2a321006e
:103100009e0078005007200074fb07000080fa0042
:10311000000006000400fa00881f7800008fbe003f
:1031200018c0b3006011b8001e0078009e00900027
:10313000a3f607000000e00001003d000044eb00a2
:103140000804e000030032001e0078009e0090009a
:10315000030037001e0078009e00900001f0a200de
:103160004f0478000080fa00000006000800fa0012
:10317000881f7800008fbe00220798003307980050
:1031800018c0b3002e019000be0190001e00780010
:103190009e0090008af607000000e00001003c005d
:1031a0000044eb000804e000030032001e00780039
:1031b0009e009000020037002e009000be0090009c
:1031c0004f0478000080fa00000006000800fa00b2
:1031d000881f7800008fbe002207980033079800f0
:1031e00018c0b3002e019000be0190001e007800b0
:1031f0009e00900070f607000000e000010035001e
:103200000044eb000804e000030032001e007800d8
:103210009e009000020037002e009000be0090003b
:103220004f0478000080fa00000006000c00fa004d
:10323000881f7800008fbe0022079800330798008f
:10324000440798005507980018c0b3002e0190005d
:10325000be0190001e0078009e00900056f6070008
:103260000000e000010035000044eb000804e0002d
:10327000030032002e009000be00900010003700c6
:1032800018c0b3004e019000de0190001e007800cf
:103290009e0090004af607000000e00001003c009c
:1032a0000044eb000804e000030032004e009000f0
:1032b000de009000020037001e0078009e009000a3
:1032c0004f0478000080fa00000006000800fa00b1
:1032d0002007980031079800b2fd200093042400d5
:1032e0002e009000be00900091f50700b2fd200076
:1032f000930c240075f60700b2fd2000930424000f
:103300008cf50700008fbe00b2fd2000930424005e
:103310001e0078009e00900086f50700b2fd200098
:10332000930c240069f60700b2fd200093042400ea
:103330007ff507000080fa00000006000a00fa008e
:103340003007980041079800be0090004e009000a2
:10335000008f40001e00780010017800900190005e
:1033600012079800230798001e009000ae009000fe
:103370000080fa00000006000600fa00100798001e
:10338000210798009e0090002e009000008f4000c2
:103390001e00780090009000100078000080fa0075
:1033a000000006000c00fa00200798003107980082
:1033b00042079800530798006800470010079800dc
:1033c0000000eb00000f78000a0037003e0090007c
:1033d0001e004000ae009000008040009e0078007b
:1033e0001e01900081004100914078000148780062
:1033f0001e0fe8001e007800e30f5000f3ff3400ba
:103400000080fa00000006000c00fa002007980077
:10341000310798004207980053079800680047005a
:10342000100798000000eb00000f78000b00370039
:103430003e0090001e004000ae0090000080400062
:10344000320020009e0051001e01900081004100ca
:1034500091407800014878001e0fe8001e007800b7
:10346000e30f5000f2ff34000080fa000000060075
:103470000c00fa00200798003107980042079800d6
:103480005307980068004700100798000000eb0001
:10349000000f78000a0037003e0090001e00400038
:1034a000ae009000008040009e0078001e01900059
:1034b0008100410091407800014878001e0fe8002b
:1034c0001e007800e70f5000f3ff34000080fa0080
:1034d000000006000000fa00881f7800d0c78000b6
:1034e000e1c7800018c0b30002002000831c240044
:1034f000b1f507000000e000010035000044eb00da
:103500000804e0000e00320070c7800081c7800010
:1035100018c0b30002002000831c2400a6f5070099
:103520000000e000010035000044eb000804e0006a
:103530000300320050002000c0868800c100370020
:10354000b0c78000c1c7800018c0b30002002000cf
:10355000c320240098f507000000e00001003500ba
:103560000044eb000804e00003003200500020009b
:10357000c0868800b3003700d0c78000e1c7800054
:1035800018c0b30002002000c32024008af5070001
:103590000000e000010035000044eb000804e000fa
:1035a00019003200b0c78000c1c7800018c0b30046
:1035b00002002000831c240081f507000000e000c9
:1035c00001003c000044eb000804e0000e00320063
:1035d00070c7800081c7800018c0b30002002000bf
:1035e000c320240076f507000000e00001003c0045
:1035f0000044eb000804e00003003200200020003b
:10360000c08688008f003700d0c78000e1c78000e7
:1036100018c0b30002002000c320240068f5070092
:103620000000e00001003c000044eb000804e00062
:1036300019003200b0c78000c1c7800018c0b300b5
:1036400002002000831c24005df507000000e0005c
:1036500001003c000044eb000804e0000e003200d2
:1036600070c7800081c7800018c0b300020020002e
:10367000c320240050f507000000e00001003500e1
:103680000044eb000804e00003003200400020008a
:10369000c08688006b003700f0c7800001c880003a
:1036a00018c0b300020020000312240042f50700f6
:1036b0000000e000010035000044eb000804e000d9
:1036c0004100320090c78000a1c7800018c0b3003d
:1036d000020020000312240037f507000000e0007c
:1036e000010035000044eb000804e0003600320021
:1036f000f4c7800005c8800090c78000a1c7800083
:1037000018c0b3000001be000400be002af5070087
:103710000000e000010035000044eb000804e00078
:103720000b003a00d0c78000e1c7800018c0b3008a
:1037300002002000030a24001ff507000000e0003b
:10374000010035000044eb000804e00003003200f3
:1037500060002000c08688003a003700f4c780006f
:1037600005c8800090c78000a1c7800018c0b300c2
:103770000001be000400be0011f507000000e000db
:1037800001003c000044eb000804e0000b003a009c
:1037900070c7800081c7800018c0b30002002000fd
:1037a000030a240004f507000000e00001003500d2
:1037b0000044eb000804e00021003200700020000b
:1037c000c08688001f003700f0c7800001c8800055
:1037d00018c0b3000200200003172400f6f407000d
:1037e0000000e000010035000044eb000804e000a8
:1037f0000300320010002000c0868800110037004e
:1038000090c78000a1c7800018c0b300020020004c
:1038100003172400e8f407000000e0000100350071
:103820000044eb000804e0000300320030002000f8
:10383000c086880003003700d830ef000100370051
:1038400000000000c08680004f0478000080fa006d
:10385000000006000000fa001160800080ff2f00c9
:10386000008060001060880000fa2000206088005e
:1038700023aca800238ca80011618000f03f2f002a
:103880000080600000a0a0001061880030002000cf
:1038900020618800c3aca800c38ca800116680001a
:1038a000f03f2f000080600000a0a000106688009c
:1038b000300020002066880001eca8000080fa009b
:1038c000000006000000fa00889fbe0054c7800078
:1038d00065c7800030c7800041c7800018c0b300b2
:1038e0000001be000400be00b3f407000000e000c9
:1038f000010035000044eb000804e0000d00320038
:1039000038c7800049c7800054c7800065c7800061
:1039100070868000818680000001be000400be0029
:1039200004f407000801be00c600070050c7880065
:1039300061c7880054c7800065c7800030c7800019
:1039400041c7800018c0b3000001be000400be00e3
:103950009bf407000000e00001003c000044eb0085
:103960000804e0000d00320038c7800049c780001d
:1039700054c7800065c78000708680008186800003
:103980000001be000400be00e9f307000801be000c
:103990009400070050c7880061c7880050c78000a6
:1039a00061c7800018c0b3006011b80084f407003c
:1039b0000000e00001003c000044eb000804e000cf
:1039c00004003200c3eca90024cea800c3cca80098
:1039d00003003700c3cca90024eea800c3eca80064
:1039e00050c7800061c78000680007000200200007
:1039f0000322240059f5070094f407000000780022
:103a00003066880014c7800025c78000f0c680009b
:103a100001c7800018c0b3000001be000400be0052
:103a200065f407000000e000010035000044eb00f1
:103a30000804e0000d003200f8c6800009c78000cd
:103a400014c7800025c780007086800081868000b2
:103a50000001be000400be00b6f307000801be006e
:103a60007800070010c7880021c7880014c78000ad
:103a700025c78000f0c6800001c7800018c0b300d1
:103a80000001be000400be004df407000000e0008d
:103a900001003c000044eb000804e0000d0032008f
:103aa000f8c6800009c7800014c7800025c78000c1
:103ab00070868000818680000001be000400be0088
:103ac0009bf307000801be004600070010c78800ee
:103ad00021c7880010c7800021c7800018c0b3002c
:103ae0006011b80036f407000000e00001003c005f
:103af0000044eb000804e0000400320023cca900dd
:103b000015eea80023eca8000300370023eca90061
:103b100015cea80023cca80010c7800021c78000c4
:103b20001a00070002002000032224000bf5070002
:103b300046f4070000007800306188004f04be00a2
:103b40000080fa00000006000600fa00008fbe00a8
:103b5000220798002e0090000000e00005003a00c7
:103b60001e0178009e01900032c7880043c788007c
:103b7000040037001e0178009e019000f2c6880004
:103b800003c788000080fa00000006000400fa0065
:103b9000881f7800008fbe0018c0b3006011b80005
:103ba0001e0078009e00900005f407000000e00071
:103bb00001003d000044eb000804e0000300320077
:103bc0001e0078009e009000030037001e00780061
:103bd0009e00900001f0a2004f0478000080fa00df
:103be000000006000800fa00881f7800008fbe0061
:103bf000220798003307980018c0b3002e019000e8
:103c0000be0190001e0078009e009000ecf30700bb
:103c10000000e00001003c000044eb000804e0006c
:103c2000030032001e0078009e0090000200370062
:103c30002e009000be0090004f0478000080fa0033
:103c4000000006000800fa00881f7800008fbe0000
:103c5000220798003307980018c0b3002e01900087
:103c6000be0190001e0078009e009000d2f3070075
:103c70000000e000010035000044eb000804e00013
:103c8000030032001e0078009e0090000200370002
:103c90002e009000be0090004f0478000080fa00d3
:103ca000000006000c00fa00881f7800008fbe009c
:103cb000220798003307980044079800550798009a
:103cc00018c0b3004e019000de0190001e00780085
:103cd0009e009000baf307000000e00001003c00e5
:103ce0000044eb000804e000040032004e019000a4
:103cf000de019000028fbe000e00370018c0b30036
:103d00002e019000be0190001e0078009e009000e1
:103d1000a9f307000000e000010035000044eb00bb
:103d20000804e000030032002e019000be01900064
:103d3000028fbe001e0078009e0090004f047800a5
:103d40000080fa00000006000400fa00008fbe00a8
:103d5000b2fd2000930424001e0078009e00900015
:103d600053f3070002002000433324007bf40700d4
:103d70000080fa00000006000400fa00008fbe0078
:103d8000b2fd2000930424001e0078009e009000e5
:103d900072f40700020020004333240044f30700bc
:103da0000080fa00000006000600fa0010079800e4
:103db000210798000040eb00004f780051000700f9
:103dc000ae009000810f5000110034000040eb0065
:103dd000004f7800060037001e80fb009e00900018
:103de00000804000104078000b0007001e4fe800e4
:103df0009e80fb002e009000808f5000f6ff350063
:103e00002c0007000004e00001003a002000070039
:103e10000080fa00000006000200fa00004f78005f
:103e200020868000c10d2100808040009e487800df
:103e30000000e8002086880021868000f03f2000f6
:103e4000808f500001003400c430ef000080fa0081
:103e5000000006000200fa0030868000c10d21003b
:103e600080804000114f78000000e8003086880014
:103e700031868000f03f2000808f50000100340028
:103e8000c630ef001e4078000080fa0000000600f7
:103e90000200fa0010c0b300c8f0b700edff070041
:103ea000004f78001e80fb00201188000080fa007f
:103eb000000006000000fa00c8d0bf000080fa0031
:103ec000000006000000fa00218680003086800095
:103ed000808f5000040035002186800030868000ed
:103ee0000080500005003700218680003086800069
:103ef0008080500000402000008040000080fa00d8
:103f0000000006000000fa00eeff0700014020005c
:103f1000008050000080fa00000006000000fa0057
:103f200021e3a9002143a80001198000f0cf2f0050
:103f300000806000001988002043a900011980005a
:103f4000000e200001007000001988001119800087
:103f5000f0ff210000806000101988002343a800b2
:103f600011198000f0cf2f00008060001019880028
:103f70001119800030f82f00008060000040a00080
:103f8000101988002203a9002223a90025e3a90013
:103f9000f0c0b30024e3b70021198000f00f2e0019
:103fa0008080600000f0200001007000201988006f
:103fb0003303a9004feea8002e0ea8002f6ea80014
:103fc0006f2ea8001e2ea80031e3a80030c3a80061
:103fd0003163a8002e03a8003063a80041198000b7
:103fe00000fc2f00008060004019880028e3a90031
:103ff00001a8a90021a8a80021e3a8000080fa00d8
:10400000000006000000fa002023a8000080fa004b
:10401000000006000000fa0020b221000080fa0033
:10402000000006000000fa00d7d0bf000080fa00b0
:10403000000006000000fa00d770ef000080fa00d0
:10404000000006000200fa00004f78002800070078
:104050000000e0000b00340090868000c14d21007c
:10406000808040009e4878000000e800908688002c
:1040700091868000f03f2000808f500001003400c6
:10408000d230ef000080fa00000006000200fa00c3
:10409000a0868000c14d210080804000114f780033
:1040a0000000e800a0868800a1868000f03f200084
:1040b000808f500001003400d430ef001e407800a3
:1040c0000080fa00000006000000fa0091868000df
:1040d000a0868000808f50000200320010c0b30024
:1040e000010037000040eb000080fa0000000600ed
:1040f0000000fa0091868000a0868000808f50002a
:1041000006003500a18680009086800080805000e7
:1041100000402000008040000500370091868000ac
:10412000a086800080805000004020000080400079
:104130000080fa00000006000000fa00ecff070013
:1041400001402000008050000080fa0000000600be
:104150000000fa002002a9000111800090ff2f004a
:10416000008060000011880020a2a9002062a80041
:10417000500520004011880023a2a90023e2a900d5
:104180000188a9002188a80011118000f0f32f00f8
:1041900000806000101188000168a9002168a80053
:1041a00021428000f0ff2800808060000000250090
:1041b00001007000204288003142800080ff2f0003
:1041c000008060000020a0003042880021e2a800aa
:1041d0002342a8000080fa00000006000600fa0052
:1041e00010079800210798000040eb00004f78006e
:1041f0000040eb00004f78000e0037000000000088
:104200001111800000202000008060000000e0000c
:10421000fbff3a001e009000104078000080fb0079
:10422000201188001e0090000000e8001007980090
:104230001e4fe8009e80fb002e009000808f5000f3
:0c424000eeff35000080fa0000000600d0
:020000040000fa
:10424c00b01000000a00000080000000ca1000003e
:10425c0004000000820000001e00010000000000ad
:10426c00ba1000000a00000080000000dc180000fa
:10427c00e600000080000000ce10000004000000ea
:10428c00820000000000700041000000221b0000b2
:10429c000a00000080000000d610000002000000a0
:1042ac0080000000d8100000020000008000000018
:1042bc00dc1000000004000080000000c4100000ae
:1042cc000600000080000000dc1400000004000068
:1042dc0080000000d21000000400000080000000ec
:1042ec00a21a00008000000080000000681000008e
:1042fc00280000008000000090100000200000004a
:10430c0080000000c2190000e000000080000000e6
:10431c00001000006800000080000000da100000af
:0c432c0002000000800000000000000003
:020000040000fa
:104338000000fa000e2eef001e2eef002e2eef00ca
:104348003e2eef004e2eef005e2eef006e2eef0099
:10435800214ea90060cea90060eea90011cea900e7
:1043680011eea90020cea90020eea900002ea80079
:104378002136800000f82f00008060008001b30023
:10438800203688001134800000fc2f000080600077
:104398000000a000103488000136800000f82f00cb
:1043a8008080600010062000010070000036880040
:1043b80001368000f00f2800808060000000260091
:1043c8000100700000368800e135800000f82f00f9
:1043d800808060006004200001007000e0358800e3
:1043e800e1358000f00f2800808060000050240034
:1043f80001007000e03588000080fa000000060027
:104408000000fa00f0032000303a8800213a8000ca
:10441800f0f32f0000806000203a8800213a8000e5
:1044280000fe2f00008060000000a000203a8800f5
:104438001200200080072000a1092000337420000a
:10444800804978008149780082497800103a8000d4
:10445800000178000200a00060042000710520001f
:1044680023742000804978008149780082497800c7
:1044780000000000113a80000000270080806000e2
:1044880000002100808f5000faff3a000000000071
:10449800113a800000022000008060000000e00067
:0c44a800fbff32000080fa00000006005c
:020000040000fa
:02000004000af0
:04afe000cfff00009f
:020000040000fa
:02000004000af0
:04afe400ffff00006b
:020000040000fa
:02000004000af0
:04afe8007fff0000e7
:020000040000fa
:02000004000af0
:04afec005fff000003
:020000040000fa
:02000004000af0
:04aff00038ff000026
:020000040000fa
:02000004000af0
:04aff400ffff00005b
:00000001FF
