:020000040000fa
:080000000002040000000000f2
:020000040000fa
:040008000a040000e6
:020000040000fa
:04000c000a040000e2
:020000040000fa
:040010000a040000de
:020000040000fa
:040014000a040000da
:020000040000fa
:040018000a040000d6
:020000040000fa
:04001c000a040000d2
:020000040000fa
:040020000a040000ce
:020000040000fa
:040024000a040000ca
:020000040000fa
:040028000a040000c6
:020000040000fa
:04002c000a040000c2
:020000040000fa
:040030000a040000be
:020000040000fa
:0400340002030000c3
:020000040000fa
:040038000a040000b6
:020000040000fa
:04003c000a040000b2
:020000040000fa
:040040000a040000ae
:020000040000fa
:040044000a040000aa
:020000040000fa
:04004800fa020000b8
:020000040000fa
:04004c000a040000a2
:020000040000fa
:040050000a0400009e
:020000040000fa
:04005400c6030000df
:020000040000fa
:040058009c03000005
:020000040000fa
:04005c007803000025
:020000040000fa
:040060000a0400008e
:020000040000fa
:040064000a0400008a
:020000040000fa
:040068000a04000086
:020000040000fa
:04006c000a04000082
:020000040000fa
:040070000a0400007e
:020000040000fa
:040074000a0400007a
:020000040000fa
:040078000a04000076
:020000040000fa
:04007c000a04000072
:020000040000fa
:040080000a0400006e
:020000040000fa
:040084000a0400006a
:020000040000fa
:040088000a04000066
:020000040000fa
:04008c000a04000062
:020000040000fa
:040090000a0400005e
:020000040000fa
:040094004e03000017
:020000040000fa
:040098000a04000056
:020000040000fa
:04009c000a04000052
:020000040000fa
:0400a0000a0400004e
:020000040000fa
:0400a4000a0400004a
:020000040000fa
:0400a8000a04000046
:020000040000fa
:0400ac000a04000042
:020000040000fa
:0400b0000a0400003e
:020000040000fa
:0400b4000a0400003a
:020000040000fa
:0400b8000a04000036
:020000040000fa
:0400bc000a04000032
:020000040000fa
:0400c0000a0400002e
:020000040000fa
:0400c4000a0400002a
:020000040000fa
:0400c8000a04000026
:020000040000fa
:0400cc000a04000022
:020000040000fa
:0400d0000a0400001e
:020000040000fa
:0400d4000a0400001a
:020000040000fa
:0400d8000a04000016
:020000040000fa
:0400dc000a04000012
:020000040000fa
:0400e0000a0400000e
:020000040000fa
:0400e4000a0400000a
:020000040000fa
:0400e8000a04000006
:020000040000fa
:0400ec000a04000002
:020000040000fa
:0400f0000a040000fe
:020000040000fa
:0400f4000a040000fa
:020000040000fa
:0400f8000a040000f6
:020000040000fa
:0400fc000a040000f2
:020000040000fa
:040100000a040000ed
:020000040000fa
:040104000a040000e9
:020000040000fa
:040108000a040000e5
:020000040000fa
:04010c000a040000e1
:020000040000fa
:040110000a040000dd
:020000040000fa
:040114000a040000d9
:020000040000fa
:040118000a040000d5
:020000040000fa
:04011c000a040000d1
:020000040000fa
:040120000a040000cd
:020000040000fa
:040124000a040000c9
:020000040000fa
:040128000a040000c5
:020000040000fa
:04012c000a040000c1
:020000040000fa
:040130000a040000bd
:020000040000fa
:040134000a040000b9
:020000040000fa
:040138000a040000b5
:020000040000fa
:04013c000a040000b1
:020000040000fa
:040140000a040000ad
:020000040000fa
:040144000a040000a9
:020000040000fa
:040148000a040000a5
:020000040000fa
:04014c000a040000a1
:020000040000fa
:040150000a0400009d
:020000040000fa
:040154000a04000099
:020000040000fa
:040158000a04000095
:020000040000fa
:04015c000a04000091
:020000040000fa
:040160000a0400008d
:020000040000fa
:040164000a04000089
:020000040000fa
:040168000a04000085
:020000040000fa
:04016c000a04000081
:020000040000fa
:040170000a0400007d
:020000040000fa
:040174000a04000079
:020000040000fa
:040178000a04000075
:020000040000fa
:04017c000a04000071
:020000040000fa
:040180000a0400006d
:020000040000fa
:040184000a04000069
:020000040000fa
:040188000a04000065
:020000040000fa
:04018c000a04000061
:020000040000fa
:040190000a0400005d
:020000040000fa
:040194000a04000059
:020000040000fa
:040198000a04000055
:020000040000fa
:04019c000a04000051
:020000040000fa
:0401a0000a0400004d
:020000040000fa
:0401a4000a04000049
:020000040000fa
:0401a8000a04000045
:020000040000fa
:0401ac000a04000041
:020000040000fa
:0401b0000a0400003d
:020000040000fa
:0401b4000a04000039
:020000040000fa
:0401b8000a04000035
:020000040000fa
:0401bc000a04000031
:020000040000fa
:0401c0000a0400002d
:020000040000fa
:0401c4000a04000029
:020000040000fa
:0401c8000a04000025
:020000040000fa
:0401cc000a04000021
:020000040000fa
:0401d0000a0400001d
:020000040000fa
:0401d4000a04000019
:020000040000fa
:0401d8000a04000015
:020000040000fa
:0401dc000a04000011
:020000040000fa
:0401e0000a0400000d
:020000040000fa
:0401e4000a04000009
:020000040000fa
:0401e8000a04000005
:020000040000fa
:0401ec000a04000001
:020000040000fa
:0401f0000a040000fd
:020000040000fa
:0401f4000a040000f9
:020000040000fa
:0401f8000a040000f5
:020000040000fa
:0401fc000a040000f1
:020000040000fa
:040200000a040000ec
:020000040000fa
:040204000a040000e8
:020000040000fa
:040208000a040000e4
:020000040000fa
:04020c000a040000e0
:020000040000fa
:040210000a040000dc
:020000040000fa
:040214000a040000d8
:020000040000fa
:040218000a040000d4
:020000040000fa
:04021c000a040000d0
:020000040000fa
:040220000a040000cc
:020000040000fa
:040224000a040000c8
:020000040000fa
:040228000a040000c4
:020000040000fa
:04022c000a040000c0
:020000040000fa
:040230000a040000bc
:020000040000fa
:040234000a040000b8
:020000040000fa
:040238000a040000b4
:020000040000fa
:04023c000a040000b0
:020000040000fa
:040240000a040000ac
:020000040000fa
:040244000a040000a8
:020000040000fa
:040248000a040000a4
:020000040000fa
:04024c000a040000a0
:020000040000fa
:040250000a0400009c
:020000040000fa
:040254000a04000098
:020000040000fa
:040258000a04000094
:020000040000fa
:04025c000a04000090
:020000040000fa
:040260000a0400008c
:020000040000fa
:040264000a04000088
:020000040000fa
:040268000a04000084
:020000040000fa
:04026c000a04000080
:020000040000fa
:040270000a0400007c
:020000040000fa
:040274000a04000078
:020000040000fa
:040278000a04000074
:020000040000fa
:04027c000a04000070
:020000040000fa
:040280000a0400006c
:020000040000fa
:100400008fab21000eff2c000e01880000000000c1
:10041000000020000000e000020032000001200087
:100420002002880014000700fc0007000000e00024
:1004300003003a00c02b2200010020000200370018
:100440000000200001002000810f70000100320038
:100450000f000700000020000000e0000200320052
:100460000000020000000000180902000000000067
:100470000040da000000fe00200020000000e00044
:1004800002003200100020009001880000000600e9
:10049000a1028800800478000000eb001f003700f4
:1004a000e284440054a0b4009905ba00e2844400f8
:1004b00054a0b4009906ba00e284440054a0b400e9
:1004c0000006eb00476fde00fd07b200ae018800ba
:1004d000636ce10003003a000ad801000000eb0061
:1004e0000e003700606ce10008003a00004deb00a0
:1004f0000a05e800020039003420ec000af0a000f0
:100500008b05e900f9ff3e00040037006168e10057
:10051000010032000086eb000b00070019c7ba008b
:100520000e04e0001905ba0003003a000a00e000da
:10053000dbff3a0000000600fe07b200ae028800b2
:100540008a047800f5ff37000cd0a300e20f4d00bd
:100550001c00390089027800354dba000a05e80010
:10056000020039003420ec000af0a0008b05e900fd
:100570000f003200254dba000a05e80002003900dc
:100580003420ec000af0a0008b05e90008003200de
:100590000c00e0000600320015cdba000a05e800a4
:1005a000020039003420ec000af0a0008b05e900bd
:1005b0008984e80054a0b4000b00e000e2ff3a0098
:1005c000000006009902ba00055d78008b05e9007d
:1005d000f7ff3200c82ade00055d78008b05e900d0
:1005e000f3ff32000c00e000f1ff320019ddba0029
:1005f000eeff37000000fa000108a9000080fa00b1
:10060000004006003600f800809fbe00829fbe00ba
:10061000849fbe00869fbe000200fa000068a90009
:10062000430f07002d0a0700f7090700a709070075
:10063000f4080700f0858000000f7800a10020007a
:100640001e00780081017800110009000300d80025
:1006500001f0a7008100ea008100e900cf08de0078
:10066000814078001e0178000200e800f0858800d3
:100670000104e00002003200010b0700cc05070076
:100680000080fa004f03be004f02be004f01be00c3
:100690004f00be003600f900004006003600f800aa
:1006a000809fbe00829fbe00849fbe00869fbe00ca
:1006b0000000fa000368a900d0858000e185800071
:1006c00061004000e0804800d0858800e185880016
:1006d000910307000080fa004f03be004f02be00e6
:1006e0004f01be004f00be003600f900004006007a
:1006f000801f78000000fa0001a8a90000188000ff
:1007000070d588001018800080d5880020188000df
:1007100090d5880030188000a0d58800401880004f
:10072000b0d5880010c0b300dbf0b7000080fa003d
:100730004f007800004006003600f800809fbe00a1
:10074000829fbe00849fbe00869fbe000000fa000c
:100750000188a9007186800060868000808f50002b
:1007600002003200950e070001003700d070ef0044
:100770000080fa004f03be004f02be004f01be00d2
:100780004f00be003600f900004006003600f800b9
:10079000809fbe00829fbe00849fbe00869fbe00d9
:1007a0000000fa000168a9001011800064006000d8
:1007b0000000e000010032002242a9001011800078
:1007c000620060000000e000060032002222a90062
:1007d000050037003011800000407800e40e07006b
:1007e000010037000000000010118000610060006f
:1007f0000000e000f7ff3a000080fa004f03be005f
:100800004f02be004f01be004f00be003600f9008f
:10081000004006000040da000000fe000000050075
:1008200003f0a200889fbe008a9fbe008c1f780044
:100830006e010700750133006450e1004f00320083
:100840006420e1005200320003826c0007003b008c
:100850000905d0000306d000820f54000c065d008d
:100860000200390002003200890178000306780096
:100870008582550004003d000003fd008103fd005a
:100880008502ea008b854200840f720002003b0063
:1008900060001000e08018006011b8000005eb0057
:1008a0007a28e1000a00390006007800c75ddd0003
:1008b000f707b200878075002d0037008281710034
:1008c0000a017800610560008180d1000080d300ba
:1008d0008502e900f9ff3b000604400087844800d8
:1008e00002003b0060041400e0841c000988a3009f
:1008f000070032008a817100828171006101640009
:100900008904d1000884d3008b05e8001700370064
:100910000978a30013003a000b00e0001300340034
:100920008b05e9000804440089844c000a447400e3
:100930000978a3000d003a000b00e0000700340026
:100940008b05e9000804440089844c0001003a004a
:100950000b0020000978a300f7ff32000001eb0034
:1009600002003700828171000a017800e40007006c
:100970000cf0a70001f0a0002d0137006420e10079
:1009800002003a00838f6c002d0133000801be0085
:100990000200be00260137000081eb005f01370036
:1009a000889fbe008a9fbe008c1f78000f01070041
:1009b0001601330003866c006450e1002e00320003
:1009c0006420e100330032006150e1002f0032006a
:1009d0006120e1003100320085855500eb07b00051
:1009e0000900200008042000050037000804440026
:1009f00089844c000a0031000603430087834b00c2
:100a00000001530081815b00f8ff33000203be0048
:100a10000800a0000804440089844c00f6ff390057
:100a2000c639dd008301730001003200130020008d
:100a30008904d1000884d3000998a300050032007e
:100a40000800a7000300a0008904d1000884d30097
:100a50008b05e8008904d1000884d3000001eb0075
:100a60000281d200a600070001f0a1000cf0a7004f
:100a700001f0a000ee0037006420e100f000320039
:100a80000801be000200be00f7ff37006120e10050
:100a9000eb0032006000b800f3ff370000002000d8
:100aa00001f82700f0ff370014002000860137000e
:100ab000f4ff2f00840137000001be00b6000700dc
:100ac0000470a70003f0a1006509b1001600320010
:100ad0000d0035006828e10006003500f0ff2f000a
:100ae000f1ff27000300e00013003b000100280095
:100af0000000050000004000818048008502e900f8
:100b0000fcff3a0008003700f88f420002003c006a
:100b10008000eb00000005008100d1000080d300c0
:100b20008502e800fcff3a000300e00002003b0001
:100b300060001000e0801800000006000001be0008
:100b4000950007000470a70003f0a10003f8a300bc
:100b500013003a006509b1001000320009003500a9
:100b60006928e100020035000100280000000500ae
:100b700000004000818048008502e900fcff3a0047
:100b800000000600f88f4200050035008100d1000a
:100b90000080d3008502e800fcff3a000000060058
:100ba0008000eb00000005004f89de008201780024
:100bb000600137006011b8006e01370004002000aa
:100bc00000003700889fbe008a9fbe008c1f7800ff
:100bd0004f26dd00850007008c0033006120e10016
:100be000430032006250e10041003e003e00390007
:100bf0006420e1003c003200058255000f003b00fc
:100c00000402e80038003a00800f5300818f5b0037
:100c1000350034000800be0003f0a10001f0a6007a
:100c200003f0a0000cf0a700fefe070080003700d4
:100c30000603430087834b000c4646000005530023
:100c400081855b00020033000a03be000c00a00097
:100c50000402e900f6ff3b00850578000602430028
:100c600087824b0004003a006000b80009f0a7003a
:100c700001f0a0006e0037000002520081825a008d
:100c80000704e000040033000603430087834b00a1
:100c90008b05e900faff3700090578000604be005d
:100ca0000203be006011b80015000700e00f5200fb
:100cb000e08f5a000700350002003c000c08a3003a
:100cc000040032000601be0003f0a0000cf0a700f3
:100cd000d4fe07000a85680001f0a1000af0a70011
:100ce00001f0a000520037000800be00500037009d
:100cf000100220000cf0a600f0868800500037009b
:100d000081002000618055000b003d000b00200099
:100d100061fe2f000100e1001d003400828171009e
:100d2000610164008904d1000884d3000000e80058
:100d3000faff3a00710020006100640003007000b7
:100d4000020060000900320061044400e0844c00ad
:100d50000988a500050032008b05e8006808e1005d
:100d600002003a008904d1000884d300f20f200069
:100d70000258e10005003d00c75ddd00f907b20043
:100d80008980750008007800000006000bf8270035
:100d90008b00780000000500c70ade00f107b200f2
:100da000f50fb20008003200e1cf4200020032002d
:100db0000170a00024000500810f700001003200c6
:100dc0000408050044000500810f700002003a008d
:100dd000140005008502e9000000400081c04800c1
:100de000fcff3b000170a000240005000004be00d1
:100df000e9ff07000003be000405be000200be00bc
:100e0000e5ff0700844f7500000006000200be00e9
:100e10006450e100050036006420e1000200360065
:100e20000968a30001003a000800be000160a000ac
:100e30004f0678004f05be004f04be0000000600bc
:100e4000f0ff2f00f1ff2700f9ff3700889fbe0059
:100e50008a9fbe008c1f7800e4ff0700ebff330081
:100e600003866c006450e100240032006420e1003d
:100e7000270032006150e100220032006120e100d1
:100e8000210032008b854200eb07b1000134b8002d
:100e9000003ab8000804420089844a00013ab800c8
:100ea0000030b8008880400009014a000400330087
:100eb0000000400081804800020149008b05e900e4
:100ec000c909dd0083017000010032001300200019
:100ed000c814de004814dd004709de001200b2002d
:100ee000c808de000884700085ff070001f0a1003b
:100ef0000cf0a70001f0a000cdff37006120e10059
:100f0000cfff32000801be000200be00f7ff37002d
:100f10006150e100fcff3a00c9ff3700889fbe0026
:100f20008a9fbe008c9fbe00820578000004be0030
:100f300099ff07000800be006420e10007003900a7
:100f400002003a00f1ff2700f0ff2f000160a0002f
:100f500012022000f2868800550037006120e1006f
:100f600003003a000b00a70001f8230050003700ef
:100f700001f0a1000200210093642400cafe0700d2
:100f80000800be0004003500b2fd2000930c2400d0
:100f90000aff07000004be000005eb000b00a600de
:100fa0004f0dde0001f0a1000004be0032982f00ba
:100fb00023ea2300a5ff07000001eb0003f0230054
:100fc0000b00a70003f8230016fe0700bafe070077
:100fd0000000a7000a00a200f3fe07000b00e000db
:100fe000030032000200200003f023000cfe070083
:100ff00001f0a2000006be000200200093042400bd
:1010000092ff07000801be0006fe0700809fbe0099
:101010000c00be0022a22a00d3a723008bff0700ea
:101020004f01be00fffd07000004be0001f0a1005b
:1010300002002000039823009bfe07000800be006a
:10104000190035000001be0080ff07000006be0049
:10105000b2c52900e36223007cff070022222b0097
:10106000f3942b00effd07000c01be0077ff070093
:10107000e273280083c02300eafd07000c01be00d4
:1010800072ff070042aa2a00a3e22b00e5fd070039
:101090000c01be006dff07000801be006bff0700da
:1010a0000801be00dffd07000a00a70001f0a20052
:1010b0004f06be004f05be004f04be0000000600f4
:1010c0000001eb0095ff3700889fbe008a9fbe009d
:1010d000841f780045ff07004f007800110033009f
:1010e000f0ff2f00838f6c0006003b0004056500b5
:1010f0000a00a7000800370009f0a6001000200031
:1011000008003700820f5400838f5c000300390011
:101110001000200001003e000000200009f0a700a0
:101120000000ea004f05be004f04be000000e000d2
:1011300000000600881f7800030478000300e00028
:1011400007003d0060001000e080180060011900f9
:10115000e081190002003b0001f02d000300370080
:101160000400070008f0a70001f0a0004f04780079
:1011700000000600889fbe008a9fbe0000827000ab
:101180000402710004827100260032000004be00d7
:101190000200be006011b8006b092000950220001b
:1011a0000182cf000a0039000541b1000082cf0062
:1011b000070039000541b1000982cf000400390061
:1011c0000541b1000882cf00010039000541b1009e
:1011d00005425200120032000a003b008281710079
:1011e000610164008100d1000080d3008984d300b4
:1011f0000884d3008b05e8000442e800f7ff3a00ba
:10120000070037000804440089844c0000004800af
:10121000818048008b05e9000442e900f9ff3a00ab
:10122000b7fe07004f05be004f04be0000000600d9
:020000040000fa
:101230000600fa00400d07000b0d0700d50507005a
:10124000010c07005208070038080700cb08070008
:101250008a0c07000f070700170707003c0c070060
:10126000e14f500083003a003d0c0700340c0700aa
:10127000000f78001e007800100078008000eb005e
:101280004cfe07003233230033052400effe070035
:101290000200200003582400c1fd0700d2cc2c001e
:1012a000c3042400e9fe07001007980021079800f6
:1012b0001e019000ae01900000002000812024005b
:1012c000b7fd070002002000030a240054fd0700b8
:1012d000b0c78800c1c788001e80e80010007800f1
:1012e0008000eb0033fe0700323323003305240077
:1012f000d6fe07000200200003582400a8fd0700c6
:10130000d2cc2c00c3042400d0fe070010079800a4
:10131000210798001e019000ae01900000002000ff
:10132000812024009efd070002002000030a240003
:101330003bfd070090c78800a1c788009e00780089
:1013400064804000100078008000eb0019fe070068
:101350003233230033052400bcfe070002002000c6
:10136000035824008efd0700d2cc2c00c3042400b7
:10137000b6fe070010079800210798001e01900094
:10138000ae019000000020008120240084fd0700b1
:1013900002002000030a240021fd0700d0c78800b6
:1013a000e1c788009e007800688040001000780047
:1013b0008000eb00fffd07003233230033052400db
:1013c000a2fe0700020020000358240074fd07005d
:1013d000d2cc2c00c30424009cfe07001007980008
:1013e000210798001e019000ae019000000020002f
:1013f000812024006afd070002002000030a240067
:1014000007fd0700f0c7880001c888009e0078002b
:1014100066804000100078008000eb00e5fd0700ca
:10142000323323003305240088fe07000200200029
:10143000035824005afd0700d2cc2c00c30424001a
:1014400082fe070010079800210798001e019000f7
:10145000ae019000000020008120240050fd070014
:1014600002002000030a2400edfc070010c88800d9
:1014700021c88800b430ef0007003700ce0b07000a
:10148000b6f0b700b6d0bf0059040700a0858000b1
:101490000000e800a0858800f20b070080007800bb
:1014a000a0858000808f5000f4ff3e006bff370066
:1014b0000200fa00004f78001e417800710b2100f5
:1014c000824878000080fa00000006000200fa005e
:1014d000004f78001e4078000004e00006003a004b
:1014e000d470ef00c0c0b300b7f0b70064eea8003e
:1014f000254ea800060037001e407800e14f50003e
:1015000003003a0010c0b300d4f0b700b770ef008a
:101510000080fa00000006000000fa0080858000cc
:10152000e10f500006003a00f0002000908688008d
:1015300064cea90064eea900254ea9001100370071
:1015400080858000e20f500006003a004001200034
:101550009086880064cea90064eea900254ea900fb
:101560000800370080858000e30f500005003a0036
:10157000e00120009086880064cea90064eea900f6
:10158000254ea900b7d0bf000080fb00cf80de0051
:101590007201200003002000820f5000838f58004a
:1015a000ba003e0000060100170037002000370097
:1015b0003200370041003700690037007200370001
:1015c000730037007c0037007d003700870037004c
:1015d00088003700920037001f003700ae00370048
:1015e0003800370042003700430037004d00370015
:1015f0004e003700580037008b0037009500370049
:10160000960037009f003700ba30ef00bc30ef0083
:101610000001eb006000b8009b05070012002000ed
:101620006000b8009805070010c0b300b7f0b7001d
:10163000d2858000e3858000803e200001002000ec
:10164000800f5100818f59009500360020c0b300f3
:10165000b7f0b700930037000001eb006000b8005e
:1016600089050700120020006000b8008605070009
:10167000d0c0b300b7f0b7008a0037009085800073
:101680000000e80090858800908680008000eb00d4
:1016900048fd07000001eb007b05070090868000f5
:1016a0008000eb0043fd07001200200076050700d4
:1016b00030c0b300b7f0b7007a0037007b000700f6
:1016c000780037000001eb000000200001172c001b
:1016d0006d050700120020000000200001172c00fb
:1016e00069050700f0c0b300b7f0b7006d00370020
:1016f0006e0007006b0037000001eb0000002000c7
:1017000001172400600507001200200000002000df
:10171000011024005c05070010c1b300b7f0b7004a
:1017200060003700610007005e0037000001eb0039
:1017300000002000011024005305070012002000c3
:1017400000002000011724004f05070030c1b3003e
:10175000b7f0b700530037005400070051003700be
:101760000001eb00000020000117240046050700df
:10177000120020006000b8004305070050c0b3000d
:10178000b7f0b700470037004800070045003700b2
:101790000001eb006000b8003b05070012002000cc
:1017a00000002000011724003705070070c0b300b7
:1017b000b7f0b7003b0037003c00070039003700a6
:1017c0000001eb0000002000011a24002e05070094
:1017d0001200200000002000011a2c002a0507003a
:1017e00090c0b300b7f0b7002e0037002f000700fd
:1017f0002c0037000001eb0000002000011a2c0033
:10180000210507001200200000002000011a24001a
:101810001d050700b0c0b300b7f0b70021003700c6
:10182000220007001f0037000001eb00000020002d
:101830000110240014050700120020006000b80009
:10184000110507001201070050c1b300b7f0b7003f
:101850001400370015000700120037000001eb00ec
:101860006000b800080507001200200000002000fa
:10187000011024000405070070c1b300b7f0b700e1
:10188000080037000900070006003700b770ef00b6
:1018900000000000030037000000000001003700d6
:1018a000000000000080fa00000006000200fa00bc
:1018b000881f7800d4d0bf00e14f5000f1003a00fb
:1018c0000040eb00004f780010c8800021c8800065
:1018d00018c0b30002002000031a240072fc0700a5
:1018e0000000e000010035000044eb000804e000c7
:1018f0002c003a00f0c7800001c8800018c0b30077
:1019000002002000031f240067fc07000000e00025
:10191000010035000044eb000804e00021003a001b
:10192000d0c78000e1c7800018c0b30002002000cb
:10193000c32024005cfc07000000e000010035002b
:101940000044eb000804e00016003a0090c7800055
:10195000a1c7800018c0b30002002000031f2400ac
:1019600051fc07000000e000010035000044eb00de
:101970000804e0000b003a00b0c78000c1c7800037
:1019800018c0b30002002000031a240046fc070020
:101990000000e000010035000044eb000804e00016
:1019a00005003200100020008085880062080700d2
:1019b000004f78007300370010c8800021c88000f5
:1019c00018c0b300020020000322240036fc0700e8
:1019d0000000e000010035000044eb000804e000d6
:1019e0002c003a00f0c7800001c8800018c0b30086
:1019f00002002000832424002bfc07000000e000ec
:101a0000010035000044eb000804e00021003a002a
:101a1000d0c78000e1c7800018c0b30002002000da
:101a20000327240020fc07000000e000010035002f
:101a30000044eb000804e00016003a0090c7800064
:101a4000a1c7800018c0b300020020008324240036
:101a500015fc07000000e000010035000044eb0029
:101a60000804e0000b003a00b0c78000c1c7800046
:101a700018c0b30002002000032224000afc070063
:101a80000000e000010035000044eb000804e00025
:101a900003003200200020008085880039003700d4
:101aa00010c8800021c8800018c0b30002002000c8
:101ab00003222400fefb07000000e00001003d00bf
:101ac0000044eb000804e0002c003a00f0c780005e
:101ad00001c8800018c0b300020020008324240045
:101ae000f3fb07000000e00001003d000044eb00b4
:101af0000804e00021003a00d0c78000e1c7800060
:101b000018c0b3000200200003272400e8fb0700f0
:101b10000000e00001003d000044eb000804e0008c
:101b200016003a0090c78000a1c7800018c0b3001b
:101b30000200200083242400ddfb07000000e000f9
:101b400001003d000044eb000804e0000b003a00f7
:101b5000b0c78000c1c7800018c0b30002002000d9
:101b600003222400d2fb07000000e00001003d003a
:101b70000044eb000804e0000200320030002000c6
:101b8000808588001e4078000004e00003003a00d1
:101b900020c0b300b8f0b700300037001e40780016
:101ba000e34f500003003a0000c1b300b8f0b700a3
:101bb0002a0037001e407800e14f500003003a0031
:101bc00020c1b300b8f0b700240037001e407800f1
:101bd000e44f500003003a0040c0b300b8f0b70033
:101be0001e0037001e407800e24f500003003a000c
:101bf00060c0b300b8f0b700180037001e4078008e
:101c0000e54f50000a003a009085800061006000b6
:101c10000000e00003003a0080c0b300b8f0b70055
:101c20000e003700a0c0b300b8f0b7000b003700bb
:101c30001e407800e64f500003003a0040c1b30058
:101c4000b8f0b700050037001e407800e74f50009d
:101c500002003a0060c1b300b8f0b700b8d0bf00ce
:101c60008080fb00b7d0bf000080fb000000e900cf
:101c7000808f500003003200b8d0bf00b7f0b7002b
:101c8000030007004f0478000080fa0000000600ff
:101c90000600fa00750b210095427800d08580007f
:101ca000e18580004808de0000427800d085800091
:101cb000e18580004008de0080417800d08580000a
:101cc000e18580004809dd004800de000000710069
:101cd000c808de0000417800d0858000e1858000e2
:101ce00000407800054f780014479800234798007b
:101cf00032479800404798000e01780051002000bc
:101d000000052000e10107000080fa000000060045
:101d10000e00fa00000f78001207980023079800c1
:101d20003407980045079800560798006707980001
:101d30001e0078001e019000ae019000020898007d
:101d4000130898001e0078003eb99700ceb997009e
:101d500062089800730898001e0078003e01900009
:101d6000ce01900022089800330898001e007800e9
:101d70001eb99700aeb99700021098001310980092
:101d80001e0078005e019000ee019000420898006d
:101d9000530898001e0078007eb197008eb9970016
:101da00022109800331098000080fa00000006000e
:101db0000200fa000000eb00000f780070c98000fc
:101dc00081c980000001be009e00780060a421004f
:101dd0000d07070050cb800061cb80001e0178000a
:101de000640f41000001be009e00780060a4210045
:101df0000507070070c8800081c880001e017800b8
:101e0000640f41000001be009e00780060a4210024
:101e1000fd06070090c88000a1c880001e01780060
:101e2000640f41000001be009e00780060a4210004
:101e3000f5060700b0c98000c1c980001e01780006
:101e4000640f41000001be009e00780060a42100e4
:101e5000ed06070090cb8000a1cb80001e0178002a
:101e6000640f41000001be009e00780060a42100c4
:101e7000e5060700d0c98000e1c980001e01780096
:101e8000640f41000001be009e00780060a42100a4
:101e9000dd060700b0cb8000c1cb80001e017800ba
:101ea000640f41000001be009e00780060a4210084
:101eb000d5060700f0ca800001cb80001e01780023
:101ec000640f41000001be009e00780060a4210064
:101ed000cd060700d0cc8000e1cc80001e01780048
:101ee000640f41000001be009e00780060a4210044
:101ef000c506070010cb800021cb80001e017800b2
:101f0000640f41000001be009e00780060a4210023
:101f1000bd06070010cb800021cb80001e01780099
:101f2000640f41000001be009e00780060a4210003
:101f3000b506070030cb800041cb80001e01780041
:101f4000640f41000001be009e00780060a42100e3
:101f5000ad06070030cb800041cb80001e01780029
:101f6000640f41000001be009e00780060a42100c3
:101f7000a5060700f0c9800001ca80001e01780094
:101f8000640f41000001be009e00780060a42100a3
:101f90009d060700d0cb8000e1cb80001e017800b9
:101fa000640f41000001be009e00780060a4210083
:101fb0009506070010ca800021ca80001e01780023
:101fc000640f41000001be009e00780060a4210063
:101fd0008d060700f0cb800001cc80001e01780048
:101fe000640f41000001be009e00780060a4210043
:101ff0008506070030ca800041ca80001e017800b3
:10200000640f41000001be009e00780060a4210022
:102010007d06070010cc800021cc80001e017800d6
:10202000640f41000001be009e00780060a4210002
:102030007506070050ca800061ca80001e01780042
:10204000640f41000001be009e00780060a42100e2
:102050006d06070030cc800041cc80001e01780066
:10206000640f41000001be009e00780060a42100c2
:102070006506070070ca800081ca80001e017800d2
:10208000640f41000001be009e00780060a42100a2
:102090005d06070050cc800061cc80001e017800f6
:1020a000640f41000001be009e00780060a4210082
:1020b0005506070090ca8000a1ca80001e01780062
:1020c000640f41000001be009e00780060a4210062
:1020d0004d06070070cc800081cc80001e01780086
:1020e000640f41000001be009e00780060a4210042
:1020f000450607009e007800648f400062a421001e
:102100009e00780050072000e00007000080fa00e1
:10211000000006001200fa00889fbe0060079800c9
:1021200072079800030f98006e0090007e019000e7
:102130008e09900042009800530098006e009000b5
:10214000600a9000f00a90006e00900090089000e5
:10215000000890000001be000400be0010fa070055
:102160000004be006e009000f0089000600890002f
:102170000002be0005f0a2006e00900090089000e2
:10218000000890000001be000400be0004fa070031
:102190000802be000001be007e0090008e08900084
:1021a000bb050700008fbe006e00900090089000f5
:1021b000000890001e0178009e01900023fb07009c
:1021c0006e01900000199800111998006e0090009f
:1021d00040149000d014900002002000a337240087
:1021e0007e0090008e089000edf907000001be000f
:1021f0000800be008bf907006e01900040119800a6
:10220000511198006e009000001290009012900002
:102210006e009000b0089000200890000001be0001
:102220000400be00def907000004be006e0090004e
:1022300090109000001090000002be0005f0a20077
:102240006e009000b0089000200890000001be00d1
:102250000400be00d2f907006e0190004213900006
:10226000d21390000802be000001be000600be00ae
:10227000870507006e0190004011980051119800e9
:102280006e00900040129000d01290006e009000fe
:10229000b0089000200890000001be000400be00bd
:1022a000eafa07006e019000201998003119980091
:1022b0006e009000f0109000601090000001be00d1
:1022c0007e0090008e08900055f907000200200063
:1022d000a3372400ddfa0700200798003107980093
:1022e0006e00900020129000b01290006e009000de
:1022f000d0089000400890000001be000400be001d
:10230000a7f907000004be006e009000b010900016
:10231000201090000002be0005f0a2006e009000a8
:10232000d0089000400890000001be000400be00ec
:102330009bf907000802be000001be002e009000bd
:10234000be00900052050700400798005107980012
:102350006e0090007e0190008e099000621098003f
:10236000731098006e009000d00890004008900014
:102370004e019000de019000b4fa07006e0190005b
:1023800040199800511998006e009000001a9000b2
:10239000901a90006e009000b018900020189000e5
:1023a0000001be000400be001ef907000002be00ce
:1023b0006e009000d0189000401890000001be0000
:1023c0000400be0017f907004f04be000080fa00a9
:1023d000000006000a00fa00200798003107980064
:1023e00042079800e0cfb300204798002e009000ed
:1023f0004880de00804078002e40900000c06800d9
:10240000204798002e009000804078002e409000d9
:1024100000c06800204798003e0090004880de0021
:10242000804078002e40900000c06800204798004f
:102430003e009000804078002e40900000c0680070
:10244000204798000000eb00000f780008003700dc
:102450001e007800ce009000008040001040780000
:10246000ae40900000c06800204798001e0fe800b2
:102470003e0090009e007800808f5000f4ff3500f1
:102480002e4090000080fa00000006000e00fa00c6
:10249000889fbe0040079800510798006207980087
:1024a0000f0478000f007800800478000000eb0033
:1024b000000f78005e009000660040008000e90098
:1024c000210798000000e8000000e8000000d100ab
:1024d000800040000f007800818747000000e8007e
:1024e0000000d10000004000300798003e0090003e
:1024f0001e004000e1cfb300014878001e0fe80045
:102500004e0090004880de00804078003e00900041
:102510001e004000014878001e0fe8004e009000a9
:10252000804078003e0090001e0040000148780086
:102530001e0fe8005e0090004880de0080407800ba
:102540003e0090001e004000014878001e0fe80089
:102550005e009000804078003e0090001e00400029
:10256000014878001e0fe8000000eb0010079800fb
:102570000b0037001e009000ee009000008040002d
:10258000904078003e0090001e0040000148780016
:102590001e0fe8001e0090000000e80010079800e1
:1025a0009e0090005e009000808f5000f1ff35008b
:1025b0006e019000de0090004e00900085ff070045
:1025c000be0090009e804000804878001e0fe8000a
:1025d0003e0090009e007800be0607008907780044
:1025e000880778004f04be000080fa000000060053
:1025f0000400fa002047980090838000e30f500009
:1026000023003200e30f500005003e00e10f5000b0
:1026100013003200e10f500015003e0007003700a4
:10262000e50f50002d003200e50f50001c0039006e
:10263000e60f5000380032004b0037002e4090006b
:10264000e24f400002003a00100020009083880012
:102650006830ef006c30ef006a30ef004600370062
:102660006830ef002000200090838800420037008f
:102670002e4090008080fb0040838000008040005e
:102680004083880030002000908388003a003700a3
:102690006a30ef0040002000908388003600370049
:1026a0002e4090008080fb0050838000008040001e
:1026b00050838800508380000000e0000400320056
:1026c0006c30ef0050002000908388002a00370013
:1026d000600020009083880027003700608380001e
:1026e000619c210000804000ae40900001487800cd
:1026f000608380000000e8006083880061838000c0
:1027000050838000808f50001a0035006000200048
:102710009083880018003700ae4090000207210027
:10272000014978005183800040838000629c210031
:1027300028ff0700004f780070d0bf009e4078004f
:1027400080cf500006003a0050838000804078001f
:102750004083800000407800629c21000800070050
:102760007230ef00040037007230ef00000000000c
:1027700001003700000000000080fa0000000600a1
:102780000400fa00889fbe008a9fbe00004f7800b8
:1027900011479800120798001e80fb0021052000b9
:1027a000810f50001100320021052000810f5000e0
:1027b00004003c0011052000810f50000800320089
:1027c0007000370021062000810f50000d003200fc
:1027d00031062000810f50000d00320069003700e3
:1027e0001e0090001040780031fb07001e00900092
:1027f0001040780035fb070064eea800254ea800c5
:102800006000370010002000708388005d003700f2
:102810008000eb001e00900061040700a083880088
:10282000b1838800410020001e0090005c04070076
:10283000c0838800d1838800810020001e009000a2
:1028400066040700e0838800f1838800c10020004f
:102850001e00900061040700008488001184880035
:10286000010120001e0090005c0407002084880005
:1028700031848800410120001e00900057040700a9
:102880004084880051848800810120001e0090004f
:10289000520407006084880071848800a08380004f
:1028a000b18380000200200003f823007ef80700b7
:1028b0000000e00016003a006a8480007b848000fb
:1028c00048848000598480002684800037848000fa
:1028d0000484800015848000e2838000f3838000fc
:1028e000c0838000d18380008a9fbe00889fbe0085
:1028f000869fbe000403be000202be000001be00af
:10290000e092210002fd0700ec8757001d00370010
:10291000a0838000b18380006011b80062f80700d6
:102920000000e00016003a006a8480007b8480008a
:102930004884800059848000268480003784800089
:102940000484800015848000e2838000f38380008b
:10295000c0838000d18380008a9fbe00889fbe0014
:10296000869fbe000403be000202be000001be003e
:10297000a0962100e6fc0700ec8757000100370015
:10298000000000004f05be004f04be000080fa00aa
:10299000000006000000fa001160800080ff2f0098
:1029a000008060001060880000fa2000206088002d
:1029b00023aca800238ca80011618000f03f2f00f9
:1029c0000080600000a0a00010618800300020009e
:1029d00020618800c3aca800c38ca80011668000e9
:1029e000f03f2f000080600000a0a000106688006b
:1029f000300020002066880001eca8000080fa006a
:102a0000000006000000fa00889fbe0074c7800026
:102a100085c7800050c7800061c7800018c0b30020
:102a20000001be000400be001ff807000000e00027
:102a3000010035000044eb000804e0000d00320006
:102a400058c7800069c7800074c7800085c78000b0
:102a500020868000318680000001be000400be0098
:102a600070f707000801be004105070070c7880025
:102a700081c7880074c7800085c7800050c7800068
:102a800061c7800018c0b3000001be000400be0092
:102a900007f807000000e00001003c000044eb00e4
:102aa0000804e0000d00320058c7800069c78000ac
:102ab00074c7800085c78000208680003186800032
:102ac0000001be000400be0055f707000801be006b
:102ad0000f05070070c7880081c7880070c7800095
:102ae00081c7800018c0b3006011b800f0f707007c
:102af0000000e00001003c000044eb000804e0009e
:102b000004003200c3eca90024cea800c3cca80066
:102b100003003700c3cca90024eea800c3eca80032
:102b200070c7800081c78000e30407000200200016
:102b300003222400c5f8070000f807000000780011
:102b40003066880034c7800045c7800010c7800009
:102b500021c7800018c0b3000001be000400be0001
:102b6000d1f707000000e000010035000044eb0051
:102b70000804e0000d00320018c7800029c780005b
:102b800034c7800045c780002086800031868000e1
:102b90000001be000400be0022f707000801be00cd
:102ba000f304070030c7880041c7880034c780009d
:102bb00045c7800010c7800021c7800018c0b3003f
:102bc0000001be000400be00b9f707000000e000ed
:102bd00001003c000044eb000804e0000d0032005e
:102be00018c7800029c7800034c7800045c780000f
:102bf00020868000318680000001be000400be00f7
:102c000007f707000801be00c104070030c78800ad
:102c100041c7880030c7800041c7800018c0b3009a
:102c20006011b800a2f707000000e00001003c00be
:102c30000044eb000804e0000400320023cca900ab
:102c400015eea80023eca8000300370023eca90030
:102c500015cea80023cca80030c7800041c7800053
:102c600095040700020020000322240077f80700e3
:102c7000b2f7070000007800306188004f04be0002
:102c80000080fa00000006000600fa00008fbe0077
:102c9000220798002e0090000000e00005003a0096
:102ca0001e0178009e01900052c7880063c788000b
:102cb000040037001e0178009e01900012c78800b2
:102cc00023c788000080fa00000006000000fa0018
:102cd000889fbe00b0cb8000c1cb800002002000e6
:102ce0006329240059f8070030cd880041cd8800c1
:102cf000d0c98000e1c980000200200063292400bf
:102d000052f8070070cd880081cd880078cd800012
:102d100089cd800030cd800041cd800002002000b0
:102d20009335240049f80700020020000300240026
:102d30001bf707000001be000800be00b9f607003f
:102d40000002be0040868000518680000001be0067
:102d50000400be003df8070050c7880061c7880026
:102d600050c7800061c7800004002000852c24002b
:102d700002002000832c2c00c502070050c78800e9
:102d800061c7880078cd800089cd800030cd80007b
:102d900041cd800002002000933524002bf807006d
:102da0000200200003002400fdf607000001be0021
:102db0000800be009af607000002be0040868000b0
:102dc000518680000001be000400be001ff807000d
:102dd00010c7880021c7880010c7800021c7800065
:102de00004002000852c240002002000832c2c00ed
:102df000a702070010c7880021c788004f04be0043
:102e00000080fa00000006000000fa0074c980008b
:102e100085c9800070c8800081c880000001be00a4
:102e20000400be007ef60700b0c98800c1c9880052
:102e300054cb800065cb800090c88000a1c8800082
:102e40000001be000400be0075f6070090cb8800ac
:102e5000a1cb8800b0c98000c1c980000001be00bc
:102e6000e0922100abfc0700d0c98800e1c98800ce
:102e700090cb8000a1cb80000001be00a096210075
:102e8000a4fc0700b0cb8800c1cb88000080fa000a
:102e9000000006000000fa00c301a8000080eb005b
:102ea000e00e88000080eb00f00e8800c1e1a80071
:102eb0000080fa00000006000000fa00c305a80028
:102ec0000080eb00e02e88000080eb00f02e8800f0
:102ed000c1e5a8000080fa00000006000800fa0022
:102ee000889fbe008a9fbe00c0848000d18480007d
:102ef0008084880091848800e0848000f1848000d0
:102f0000a0848800b184880070838000e10f5000a5
:102f100006003a006000b800808488009184880030
:102f20006000b800a0848800b1848800300e800062
:102f30008000eb00008fbe00500e80008000eb0090
:102f4000c000dd00000020001e0f40005e9748001a
:102f5000302e80008000eb00200798003107980099
:102f6000502e80008000eb00c000dd00000020003b
:102f70002e019000be0190000200400083804800b6
:102f800020079800310798001e0078009e009000ee
:102f900005f70700d25d2b0043c82300abf70700fd
:102fa000c0848800d18488002e009000be0090006c
:102fb000fdf60700d25d2b0043c82b00a3f70700e6
:102fc000e0848800f1848800c4848000d584800077
:102fd00080848000918480000001be000400be0057
:102fe0000ff607000085880011858800e4848000c2
:102ff000f5848000a0848000b18480000001be00c0
:103000000400be0006f60700208588003185880090
:103010000485800015858000208580003185800032
:103020000001be000400be00fdf507000200200004
:10303000933524005af607004085880051858800a2
:103040000485800015858000208580003185800002
:103050000001be000400be00f2f5070002002000df
:10306000030024004ef60700608588007185880003
:10307000008580001185800002002000a337240015
:1030800072f7070030c8880041c88800208580009a
:103090003185800002002000a33724006bf7070071
:1030a00050c8880061c8880034c8800045c88000c6
:1030b00050c8800061c880000001be000400be004e
:1030c000d8f50700020020000300240034f60700b2
:1030d00070c8880081c888004085800051858000c4
:1030e00002002000a337240058f7070090c888008a
:1030f000a1c8880010c9800021c98000b0c888001c
:10310000c1c8880030c9800041c98000d0c888008b
:10311000e1c8880050c9800061c98000f0c88800fb
:1031200001c98800b8c88000c9c8800070c8800084
:1031300081c8800002002000a337240018f6070091
:103140000005be00f0c8800001c9800012f607002b
:103150000001be000a00be003cf707000001be00ef
:103160000800be00aff5070010c9880021c988001b
:10317000d8c88000e9c8800070c8800081c880007d
:1031800002002000a337240005f607000005be005a
:10319000f0c8800001c98000c9f707000001be0027
:1031a0000a00be0029f707000001be000800be00ab
:1031b0009cf5070030c9880041c98800f4c8800028
:1031c00005c9800040858000518580000001be0057
:1031d0000400be0093f5070050c9880061c988004b
:1031e00050c9800061c9800018c0b300b2fd200042
:1031f000930424002ef607000000e00001003c00cc
:103200000044eb000804e0000700320050c98000d1
:1032100061c98000b2fd2000930c240080f50700f6
:1032200050c9880061c9880050c9800061c9800008
:1032300018c0b300b2fd200093042c001af607005a
:103240000000e000010035000044eb000804e0004d
:103250000700320050c9800061c98000b2fd200023
:10326000930c24006ff5070050c9880061c98800dd
:103270004f05be004f04be000080fa0000000600ab
:103280001800fa00d0858000e18580000001be00b2
:103290008000eb000e007800f401070010c98000e8
:1032a00021c980000001be00410020000e0078000e
:1032b000d501070030c9800041c980000001be006f
:1032c000810020000e007800cf01070050c9800067
:1032d00061c980000001be00c10020000e0078001e
:1032e000c901070070c8800081c880000001be00cd
:1032f000010120000e007800c301070090c8800083
:10330000a1c880000001be00410120000e0078002d
:10331000bd0107000e017800810120001006200089
:103320005afc07000080fa00000006000000fa00c6
:1033300013e1a90011e1a9001061a8001021a90062
:1033400081088000f0fc2f00008060008008880069
:103350000a21ef000621ef00404c20007008880091
:1033600000402b00600888002142800080ff2f0071
:10337000008060000000a000204288000108a90031
:103380002108a80011e1a8000080fa000000060052
:103390000000fa0005e1a9000421a90000002000b6
:1033a000a1372400050007000068a9002068a800d4
:1033b00005e1a8000080fa00000006000400fa0001
:1033c000881f7800008fbe001e0178009e019000cb
:1033d0000068290081c1240071f5070018c0b300fe
:1033e00002f02f00f3772400b1f507000000e000a1
:1033f00001003c000044eb000804e00054003200ef
:1034000021088000f0fc2f00008060000040a00038
:10341000200888001e0178009e01900000682900a5
:1034200081c124005ef50700020020000310240083
:103430005bf5070018c0b30002f02f00f3772400fb
:103440009bf507000000e00001003c000044eb0099
:103450000804e0003200320021088000f0fc2f0058
:10346000008060000050a000200888001e01780045
:103470009e0190000068290081c1240048f50700e2
:10348000020020000328240045f5070018c0b300ff
:1034900002f02f00f377240085f507000000e0001c
:1034a00001003c000044eb000804e0001000320082
:1034b000210880000003200001007000200888001f
:1034c0001e0178009e0190000068290081c124003f
:1034d00033f50700020020000338240030f5070010
:1034e00075f50700000078001008880020003700fc
:1034f0001e0178009e0190000068290081c124000f
:1035000027f50700020020000328240024f5070007
:1035100069f50700000078001008880014003700e3
:103520001e0178009e0190000068290081c12400de
:103530001bf50700020020000310240018f5070007
:103540005df50700000078001008880008003700cb
:103550001e0178009e0190000068290081c12400ae
:103560000ff5070054f507000000780010088800e8
:103570004f0478000080fa00000006000000fa0006
:103580001fe1a90000002000a14724000600070059
:103590001e21a9000368a9002368a8001fe1a80054
:1035a0000080fa00000006000400fa00881f78007e
:1035b000008fbe00f1088000f0fc2f00008060004a
:1035c000f00888001e0178009e0190000068290024
:1035d00081c12400f2f4070018c0b30002f02f00ec
:1035e000f377240032f507000000e00001003c0002
:1035f0000044eb000804e00054003200f1088000b1
:10360000f0fc2f00008060000040a000f00888005f
:103610001e0178009e0190000068290081c12400ed
:10362000dff407000200200003102400dcf4070090
:1036300018c0b30002f02f00f37724001cf5070038
:103640000000e00001003c000044eb000804e00042
:1036500032003200f1088000f0fc2f000080600092
:103660000050a000f00888001e0178009e01900024
:103670000068290081c12400c9f40700020020006d
:1036800003282400c6f4070018c0b30002f02f007e
:10369000f377240006f507000000e00001003c007d
:1036a0000044eb000804e00010003200f108800044
:1036b0000003200001007000f00888001e0178005f
:1036c0009e0190000068290081c12400b4f4070025
:1036d0000200200003382400b1f40700f6f40700cc
:1036e00000007800d0088800200037001e01780014
:1036f0009e0190000068290081c12400a8f4070001
:103700000200200003282400a5f40700eaf40700c3
:1037100000007800d0088800140037001e017800ef
:103720009e0190000068290081c124009cf40700dc
:10373000020020000310240099f40700def40700c3
:1037400000007800d0088800080037001e017800cb
:103750009e0190000068290081c1240090f40700b8
:10376000d5f4070000007800d00888004f047800e6
:103770000080fa00000006000400fa00881f7800ac
:10378000008fbe0018c0b3006011b8001e007800a2
:103790009e009000c6f407000000e00001003d001c
:1037a0000044eb000804e000030032001e00780033
:1037b0009e009000030037001e0078009e009000dd
:1037c00001f0a2004f0478000080fa00000006001b
:1037d0000800fa00881f7800008fbe0022079800ba
:1037e0003307980018c0b3002e019000be0190006e
:1037f0001e0078009e009000adf407000000e0007d
:1038000001003c000044eb000804e000030032002b
:103810001e0078009e009000020037002e009000ed
:10382000be0090004f0478000080fa0000000600ff
:103830000800fa00881f7800008fbe002207980059
:103840003307980018c0b3002e019000be0190000d
:103850001e0078009e00900093f407000000e00036
:10386000010035000044eb000804e00003003200d2
:103870001e0078009e009000020037002e0090008d
:10388000be0090004f0478000080fa00000006009f
:103890000c00fa00881f7800008fbe0022079800f5
:1038a00033079800440798005507980018c0b300e4
:1038b0002e019000be0190001e0078009e00900036
:1038c00079f407000000e000010035000044eb003f
:1038d0000804e000030032002e009000be009000bb
:1038e0001000370018c0b3004e019000de019000b8
:1038f0001e0078009e0090006df407000000e000bc
:1039000001003c000044eb000804e000030032002a
:103910004e009000de009000020037001e0078008c
:103920009e0090004f0478000080fa00000006001e
:103930000800fa002007980031079800b2fd200027
:10394000930424002e009000be009000b4f3070002
:10395000b2fd2000930c240098f40700b2fd200073
:1039600093042400aff30700008fbe00b2fd2000d7
:10397000930424001e0078009e009000a9f3070025
:10398000b2fd2000930c24008cf40700b2fd20004f
:1039900093042400a2f307000080fa000000060050
:1039a0000a00fa003007980041079800be00900016
:1039b0004e009000008f40001e007800100178003b
:1039c0009001900012079800230798001e009000b5
:1039d000ae0090000080fa00000006000600fa0029
:1039e00010079800210798009e0090002e0090007c
:1039f000008f40001e0078009000900010007800ba
:103a00000080fa00000006000c00fa002007980071
:103a10003107980042079800530798006800470054
:103a2000100798000000eb00000f78000a00370034
:103a30003e0090001e004000ae009000008040005c
:103a40009e0078001e0190008100410091407800a6
:103a5000014878001e0fe8001e007800e30f5000b8
:103a6000f3ff34000080fa00000006000c00fa00aa
:103a700020079800310798004207980053079800e4
:103a800068004700100798000000eb00000f780066
:103a90000b0037003e0090001e004000ae0090007a
:103aa00000804000320020009e0051001e01900066
:103ab0008100410091407800014878001e0fe80025
:103ac0001e007800e30f5000f2ff34000080fa007f
:103ad000000006000c00fa0020079800310798004b
:103ae00042079800530798006800470010079800a5
:103af0000000eb00000f78000a0037003e00900045
:103b00001e004000ae009000008040009e00780043
:103b10001e0190008100410091407800014878002a
:103b20001e0fe8001e007800e70f5000f3ff34007e
:103b30000080fa00000006000000fa00881f7800ec
:103b4000f0c7800001c8800018c0b3000200200048
:103b5000831c2400d4f307000000e00001003500be
:103b60000044eb000804e0000e00320090c7800023
:103b7000a1c7800018c0b30002002000831c2400ed
:103b8000c9f307000000e000010035000044eb002d
:103b90000804e0000300320050002000e0868800a6
:103ba000c1003700d0c78000e1c7800018c0b30053
:103bb00002002000c3202400bbf307000000e00047
:103bc000010035000044eb000804e000030032006f
:103bd00050002000e0868800b3003700f0c7800066
:103be00001c8800018c0b30002002000c3202400d8
:103bf000adf307000000e000010035000044eb00d9
:103c00000804e00019003200d0c78000e1c780003e
:103c100018c0b30002002000831c2400a4f3070096
:103c20000000e00001003c000044eb000804e0005c
:103c30000e00320090c78000a1c7800018c0b300fa
:103c400002002000c320240099f307000000e000d8
:103c500001003c000044eb000804e00003003200d7
:103c600020002000e08688008f003700f0c7800029
:103c700001c8800018c0b30002002000c320240047
:103c80008bf307000000e00001003c000044eb0063
:103c90000804e00019003200d0c78000e1c78000ae
:103ca00018c0b30002002000831c240080f307002a
:103cb0000000e00001003c000044eb000804e000cc
:103cc0000e00320090c78000a1c7800018c0b3006a
:103cd00002002000c320240073f307000000e0006e
:103ce000010035000044eb000804e000030032004e
:103cf00040002000e08688006b00370010c880007c
:103d000021c8800018c0b300020020000312240064
:103d100065f307000000e000010035000044eb00ff
:103d20000804e00041003200b0c78000c1c7800035
:103d300018c0b30002002000031224005af3070049
:103d40000000e000010035000044eb000804e00042
:103d50003600320014c8800025c88000b0c780003b
:103d6000c1c7800018c0b3000001be000400be003f
:103d70004df307000000e000010035000044eb00b7
:103d80000804e0000b003a00f0c7800001c8800082
:103d900018c0b30002002000030a240042f3070009
:103da0000000e000010035000044eb000804e000e2
:103db0000300320060002000e08688003a003700ef
:103dc00014c8800025c88000b0c78000c1c780002b
:103dd00018c0b3000001be000400be0034f30700a9
:103de0000000e00001003c000044eb000804e0009b
:103df0000b003a0090c78000a1c7800018c0b30034
:103e000002002000030a240027f307000000e0005e
:103e1000010035000044eb000804e00021003200fe
:103e200070002000e08688001f00370010c8800066
:103e300021c8800018c0b30002002000031724002e
:103e400019f307000000e000010035000044eb001a
:103e50000804e0000300320010002000e086880023
:103e600011003700b0c78000c1c7800018c0b30080
:103e700002002000031724000bf307000000e000fd
:103e8000010035000044eb000804e00003003200ac
:103e900030002000e086880003003700dc30ef00af
:103ea0000100370000000000e08680004f04780029
:103eb0000080fa00000006000400fa00881f780065
:103ec000008fbe0018c0b3006011b8001e0078005b
:103ed0009e009000f6f207000000e00001003d00a7
:103ee0000044eb000804e000030032001e007800ec
:103ef0009e009000030037001e0078009e00900096
:103f000001f0a2004f0478000080fa0000000600d3
:103f10000800fa00881f7800008fbe002207980072
:103f20003307980018c0b3002e019000be01900026
:103f30001e0078009e009000ddf207000000e00007
:103f400001003c000044eb000804e00003003200e4
:103f50001e0078009e009000020037002e009000a6
:103f6000be0090004f0478000080fa0000000600b8
:103f70000800fa00881f7800008fbe002207980012
:103f80003307980018c0b3002e019000be019000c6
:103f90001e0078009e009000c3f207000000e000c1
:103fa000010035000044eb000804e000030032008b
:103fb0001e0078009e009000020037002e00900046
:103fc000be0090004f0478000080fa000000060058
:103fd0000c00fa00881f7800008fbe0022079800ae
:103fe00033079800440798005507980018c0b3009d
:103ff0004e019000de0190001e0078009e009000af
:10400000abf207000000e00001003c000044eb00c0
:104010000804e000040032004e019000de01900030
:10402000028fbe000e00370018c0b3002e019000b2
:10403000be0190001e0078009e0090009af20700da
:104040000000e000010035000044eb000804e0003f
:10405000030032002e019000be019000028fbe00ce
:104060001e0078009e0090004f0478000080fa0047
:10407000000006000400fa00008fbe00b2fd200020
:10408000930424001e0078009e00900044f2070074
:1040900002002000433324006cf307000080fa0084
:1040a000000006000400fa00008fbe00b2fd2000f0
:1040b000930424001e0078009e00900063f3070024
:1040c000020020004333240035f207000080fa008c
:1040d000000006000600fa0010079800210798006b
:1040e0000040eb00004f780051000700ae00900048
:1040f000810f5000110034000040eb00004f7800a9
:10410000060037001e80fb009e00900000804000eb
:10411000104078000b0007001e4fe8009e80fb0057
:104120002e009000808f5000f6ff35002c00070015
:104130000004e00001003a00200007000080fa00bf
:10414000000006000200fa00004f78006086800040
:10415000010e2100808040009e4878000000e800a9
:104160006086880061868000f03f2000808f5000cc
:1041700001003400cc30ef000080fa00000006009f
:104180000200fa0070868000010e2100808040004d
:10419000114f78000000e80070868800718680006a
:1041a000f03f2000808f500001003400ce30ef003f
:1041b0001e4078000080fa00000006000200fa00ad
:1041c00010c0b300d0f0b700edff0700004f78003b
:1041d0001e80fb00201188000080fa00000006000d
:1041e0000000fa00d0d0bf000080fa0000000600f6
:1041f0000000fa006186800070868000808f500089
:1042000004003500618680007086800000805000c8
:104210000500370061868000708680008080500035
:1042200000402000008040000080fa0000000600ee
:104230000000fa00eeff070001402000008050005f
:104240000080fa00000006000000fa0021e3a90047
:104250002143a80001198000f0cf2f0000806000ea
:10426000001988002043a90001198000000e2000d9
:10427000010070000019880011198000f0ff210072
:1042800000806000101988002343a80011198000e5
:10429000f0cf2f00008060001019880011198000f5
:1042a00030f82f00008060000040a0001019880046
:1042b0002203a9002223a90025e3a900f0c0b3002e
:1042c00024e3b70021198000f00f2e0080806000e9
:1042d00000f0200001007000201988003303a900bd
:1042e0004feea8002e0ea8002f6ea8006f2ea8007b
:1042f0001e2ea80031e3a80030c3a8003163a80037
:104300002e03a8003063a8004119800000fc2f0094
:10431000008060004019880028e3a90001a8a900d6
:1043200021a8a80021e3a8000080fa0000000600f0
:104330000000fa002023a8000080fa000000060018
:104340000000fa00e0aa21000080fa000000060048
:104350000000fa00dbd0bf000080fa000000060079
:104360000000fa00db70ef000080fa000000060099
:104370000200fa00004f7800280007000000e0006b
:104380000b003400b0868000014e21008080400088
:104390009e4878000000e800b0868800b186800062
:1043a000f03f2000808f500001003400d630ef0035
:1043b0000080fa00000006000200fa00c0868000bb
:1043c000014e210080804000114f78000000e8007d
:1043d000c0868800c1868000f03f2000808f50009a
:1043e00001003400d830ef001e4078000080fa0051
:1043f000000006000000fa00b1868000c086800040
:10440000808f50000200320010c0b300010037005e
:104410000040eb000080fa00000006000000fa00f7
:10442000b1868000c0868000808f50000600350075
:10443000c1868000b086800080805000004020004f
:104440000080400005003700b1868000c0868000f3
:104450008080500000402000008040000080fa0072
:10446000000006000000fa00ecff070001402000f9
:10447000008050000080fa00000006000000fa00f2
:104480002002a9000111800090ff2f000080600031
:104490000011880020a2a9002062a8005005200079
:1044a0004011880023a2a90023e2a9000188a900e5
:1044b0002188a80011118000f0f32f000080600017
:1044c000101188000168a9002168a800214280001d
:1044d000f0ff2800808060000000250001007000cf
:1044e000204288003142800080ff2f000080600061
:1044f0000020a0003042880021e2a8002342a8004a
:104500000080fa00000006000600fa00100798007c
:10451000210798000040eb00004f78000040eb00be
:10452000004f78000e0037000000000011118000dd
:1045300000202000008060000000e000fbff3a0047
:104540001e009000104078000080fb0020118800c1
:104550001e0090000000e800100798001e4fe800c1
:104560009e80fb002e009000808f5000eeff3500f3
:084570000080fa0000000600c3
:020000040000fa
:10457800b01000000a00000080000000d210000007
:1045880004000000820000001e000100000000007e
:10459800ba1000000a00000080000000e0180000c7
:1045a800e600000080000000c410000008000000c1
:1045b800820000000000700041000000803f000001
:1045c800ae1a00000a00000080000000da100000a7
:1045d8000200000080000000dc1000000200000063
:1045e80080000000e01000000004000080000000cf
:1045f800cc1000000600000080000000e01400005d
:104608000004000080000000d61000000400000034
:1046180080000000c6190000800000008000000033
:1046280068100000280000008000000090100000c2
:104638002000000080000000461a0000680000000a
:1046480080000000001000006800000080000000ea
:10465800de100000020000008000000000000000e2
:020000040000fa
:104668000000fa000e2eef001e2eef002e2eef0097
:104678003e2eef004e2eef005e2eef006e2eef0066
:10468800214ea90060cea90060eea90011cea900b4
:1046980011eea90020cea90020eea900002ea80046
:1046a8002136800000f82f00008060008001b300f0
:1046b800203688001134800000fc2f000080600044
:1046c8000000a000103488000136800000f82f0098
:1046d800808060001006200001007000003688000d
:1046e80001368000f00f280080806000000026005e
:1046f8000100700000368800e135800000f82f00c6
:10470800808060006004200001007000e0358800af
:10471800e1358000f00f2800808060000050240000
:1047280001007000e03588000080fa0000000600f3
:104738000000fa00f0032000303a8800213a800097
:10474800f0f32f0000806000203a8800213a8000b2
:1047580000fe2f00008060000000a000203a8800c2
:104768001200200080072000a109200033742000d7
:10477800804978008149780082497800103a8000a1
:10478800000178000200a0006004200071052000ec
:104798002374200080497800814978008249780094
:1047a80000000000113a80000000270080806000af
:1047b80000002100808f5000faff3a00000000003e
:1047c800113a800000022000008060000000e00034
:0c47d800fbff32000080fa000000060029
:020000040000fa
:02000004000af0
:04afe000cfff00009f
:020000040000fa
:02000004000af0
:04afe400ffff00006b
:020000040000fa
:02000004000af0
:04afe8007fff0000e7
:020000040000fa
:02000004000af0
:04afec005fff000003
:020000040000fa
:02000004000af0
:04aff00038ff000026
:020000040000fa
:02000004000af0
:04aff400ffff00005b
:00000001FF
